:400000000080002011000000AD050000AD050000194B70B51A681023184D134000D12B602B68802B25D10021052000F099F801210400052000F094F80023E4B2C0B29C428E
:4000400004D01C00984205D0033403E0441EA0410224241A210002202B6000F081F8002807D0012C05D82100022000F079F800F0FEF800F01BFCC04600030B40C00000201B
:400080000000000000000000000000000000000000000000000000000000000000000000000000000000000000000000000000000000000000000000000000000000000040
:4000C0000000000000000000000000000000000000000000000000000000000000000000000000000000000000000000000000000000000000000000000000000000000000
:4001000010B5064C2378002B07D1054B002B02D0044800E000BF0123237010BD3801002000000000B0090000084B10B5002B03D00749084800E000BF07480368002B00D131
:4001400010BD064B002BFBD09847F9E7000000003C010020B0090000C800002000000000013810B50B2830D80902494200F008FC06080A0C0E10141216191B20164B13E0C5
:40018000164B16E0164B0AE0164B12E0164B0BE0164B09E0164B02E0164B00E0164BC91814E0164B05E0164BC9180878C0B211E0144BC9180A7848788C7800022304184385
:4001C0000300C8781343000603E000210B7848780002184310BDC046C0FF0300C1FF0300C5FF0300C9FF0300D0FF0300D1FF0300D6FF0300D2FF0300D4FF0300D8FF0300D1
:40020000DCFF0300E0FF030070B5010006000320FFF7A6FF310004000420FFF7A1FF0500012E01D9062021E00134310024020320FFF796FF611900242500431C1B028B42AA
:4002400009D21A78501EC0B2FD2800D80125A218D4B20133F3E731000120FFF781FF6442E4B28442DED1002DDCD0002070BD0047F8B5050000F049FBC023184C1B02226806
:400280000600134017D1164916480F68164A05403A4015430D600A68012B08D100F035FBC022236812021343236000F032FB300000F02FFBF8BD00F028FB802122680B4B44
:4002C000C9011A400A43226022681340802212021343236000F01DFB0123D4E700010B4010020B4004040400FBFBFBFFFF3FFFFF042370B51A4C22681A420FD019490A688C
:400300001A4208D0184A156808681D40A84308601168994311600420FFF7AAFF80232268DB001A4211D00F490A681A4209D00E4A156808682B409843086011680B4B0B40B0
:4003400013608020C000FFF793FF80202368C002034203D0034B1B68FFF78AFF70BDC04610020B40CC00002054010020FFFBFFFF0023F0B5C7B0039302932C4B0500984224
:400380004FD800294DD0802206A8520000F002FB274B9D4201D8274B00E0274BFF220493264C2749274B04AE726026600B60C046236801911B0F0F2B04D021680023090FB3
:4003C0000A2901D0236813400393039F002F2AD100F09BFA0297039B002B16D11A4A2D040492049A194915430495019D2660134A2960C0462168090F0F2903D01168090F82
:400400000A2901D01368DBB20393029B002B05D10293029B002B01D0029B039300F079FA01E004230393039847B0F0BDFF030000FF010000B6D70000B6D700010800104066
:400440000400104004000080B6D8000005000080FF23020070B59A43C0B01300541C6A46FF34D51A1E78EE540133A342FAD1C3B2D45C8C4205D0000AD15480B21100FFF73A
:4004800077FF40B070BD0000F0B50121C5B00B20FFF766FE0021C3B203200193FFF760FE3A4B013084B21B1B5B089BB201210420E4180093FFF754FE030AC0B2A4B29BB236
:4004C000002801D001339BB200251B199BB20293029B9C4222D00326009B2702E31A9BB203933B007A1C04A9FF32C81B1D78C55401339342FAD10398FFF73AFF051E0AD032
:40050000013EF6B2002EECD10123019920489943FFF79EFF01BE0134A4B2D9E7002D32D180235B001B4A04A9AA1812786A5401359D42F7D144AB5B1B190001220024DC3151
:400540000A70154911480C711900D031D1330A7004A91A70FFF70CFF2A000600210004A800F006FA04A90D48FFF702FF3043A04209D180220A4B0B491A600B4A13689BB206
:400580000B43136000E001BE45B0F0BDFF030000DCFE030000FE0300CC000020FE030000C00000200400FA050CED00E010B500F0B3F903680C2B00D1FEE7FEE7F7B5012243
:4005C000504E514C3368514D93433360002350489A002100032B00D8A95801338150302BF6D172B6002480224A4BD2001C602100494800F0BDF980222100D200474800F03D
:40060000B7F9EE22464B12061A6099220621454B12041A60444A13780B431370D822434B12041A601222424B1A6000F06EF9414B01901B782F2B04D93F4B1D783F4BEDB212
:400640001EE03F4B1B782F2B04D93E4B1D783E4BEDB215E03D4B1B782F2B04D93C4B1D783C4BEDB20CE03C4B1B782F2B04D93B4B1D783B4BEDB203E03A4B1D783A4BEDB2BB
:400680001C781923394F05203B6000F035F9384B384A1B78E4B2DBB21360374BF0201D60364B1C6000F028F9352305203B6000F023F9019800F02DF9314A324B32491A60F9
:4006C000324B063A1A608022314BD2021A60314A314B1A608022314B52001A600023304A136003220A602F490A602F4A13602F4B1A68002A00D11A60012233681343336077
:40070000F7BDC04600001040AD05000000000000000000206CF02E4000300F4000400F400000024000500F4000700F40080004403000104040F3FF0F41F3FF0F42F3FF0FD3
:4007400043F3FF0F44F3FF0F45F3FF0F46F3FF0F47F3FF0F48F3FF0F49F3FF0F4AF3FF0F4BF3FF0F4CF3FF0F4DF3FF0F2CFF0B407DF3FF0F28FF0B401CFF0B4020FF0B4020
:400780000600008004010B403000304008010B4000010B40F10200006000002000E100E00C020B4030003140000E3F40C0000020F8B5364B1A68C0231B021A4243D0012147
:4007C0000B20FFF7CDFCC30701D5FFF75DFE0020FFF71AFD05000120FFF716FD02232C4C0700002105202371FFF7BAFC0626012808D1002D02D125712E0003E0002F01D1C2
:400800003E0020712379022B0ED101210520FFF7A7FC012808D1002F02D120713E0003E0002D01D12E0025712379022B08D1002D01D1257111E0002F02D1012323710CE01A
:40084000002E21D109E00121124B1A688A431A60022219681142FCD1B1E72479E4B2012C08D801210C486140FFF7F2FD21000B48FFF7EEFD80220A4B0A491A600A4A1368A6
:400880009BB20B431360FEE701BEF3E700010B40CC00002010020B40D0FF0300D0FE0300C00000200400FA050CED00E0F8B500250E490F4B01394A1C14D000221F685C6844
:4008C0009E68A018B24203D0B858A0500432F8E70200DE68141AA64201D020C2FAE710330139E8E700F01EF8FFF762FF01000000DC090000000000000230800803D0013817
:40090000FDD1C046C046C0467047EFF3108072B6704780F310887047014B18687047C046340100200E4B70B500251E000D4CE41AA410A54204D0AB00F35898470135F8E7BE
:4009400000F03AF8084B00251E00084CE41AA410A54204D0AB00F35898470135F8E770BDC4090000C4090000C4090000CC09000003008218934202D019700133FAE7704712
:4009800002B4714649084900095C49008E4402BC7047C046002310B59A4203D0CC5CC4540133F9E710BD000098000000000B00000000000043000000F8B5C046F8BC08BC6C
:4009C0009E46704729010000BD050000F8B5C046F8BC08BC9E46704701010000F0090000C800002070000000200000000000000000000000040404000200F0000000000039
:400A000000000000000000000000000000000000000000000000000000000000B40900000000000000000000000000000000000000000000000000000000000000000000F9
:400A400000000000000000000000000000000000000000000000000000000000D4000020000000000000000000000000000000000000000000000000000000000000000082
:400A80000000000000000000000000000000000000000000000000000000000000000000000000000000000000000000000000000000000000000000000000000000000036
:400AC00000000000000000000000000000000000000000000000000000000000000000000000000000000000000000000000000000000000000000000000000000000000F6
:400B000000800020110B0000ED0D0000ED0D000010B5024B83F3088800F088F900800020F8B572B680260024384DF6002C6032000021374802F07CFC32000021354802F038
:400B400077FCEE22344B12061A609923334A1B041360334A802713600623324A324E1178FF050B4313700C22304B1A60304A314B1A600122304B1A60304B05321A60304BAA
:400B80000C321A6001F022F82E4800F09DFF012001F03CF8302001F03DF902232A4A37601168FA200B431360284A294BC0001A600822284B1C602B6893432B6001F0ECF92C
:400BC000254801F059FA8022244B52001A60244A244B25491A608022244B12061A608022234BD2021A604022224B08201A6001F001FA082001F006FA03231F4A3760136092
:400C00001E4A13601E4B1C60F8BDC0466CF02E4000300F4000400F400000024000500F4010500F4000700F400C020B4000000440800DD80008000440000104400801044032
:400C400030001040001BB70078002E402D3E00007C002E4064F02E40DC0500000003014040FF0080000001406D1D000008010B4000010B401C010140300030403000314037
:400C8000000E3F4010B5064C2378002B07D1054B002B02D0044800E000BF0123237010BD2007002000000000B0CD0100084B10B5002B03D00749084800E000BF0748036862
:400CC000002B00D110BD064B002BFBD09847F9E70000000024070020B0CD0100C8000020000000000022014B1A7070471B19002010B500F099FC0022014B1A7010BDC0465C
:400D00001B19002070B5074C050024781120002C00D170BD01204042012CFAD1280000F09BFCF6E71B19002070B51400002222800A4A15781022022D01D0100070BD084DCE
:400D40002E78012EF9D8220000F0BAFC23880200002BF2D001232B70EFE7C046F01900201B19002030B50400C1B00120012C01D941B030BD184A230294465B4263441B78BB
:400D8000012BF5D080210023604049006D46134A9A181278EA5401338B42F7D140AAD31AD022694698540E4800F09EFE802105000023490068460B4A9A181278C254013361
:400DC0008B42F7D140AAD31AD022694606489C5400F08AFE2843CBE7D0FF030000FF0300FF03000000FE0300FE03000010B502F0C7FA03680C2B00D0FEE7FEE7030010B5BF
:400E000094240849084A0868A401C3189A1AA24201DC0B6010BD02F0B3FA0C23036001204042F7E79C040020001A0020F8B5104E002E18D000200F4DA9682C686A680029D1
:400E400005D00023E758043380C29942FAD1E9680023002903D0D05004339942FBD1013E1035002EE8D102F091FA02F015F8FEE701000000A8D201000121134A70B5136847
:400E8000124C8B431360124800220023114D04E00133A1500432302B08D00100032BF7D851590133A1500432302BF6D1FFF738FE094B1A68002A00D11A600123024A11689F
:400EC0000B43136070BDC0460000104000000020ED0D0000000B0000C000002070B51B4C00292FD1E67F002E24D021780022002906D11FE0CAB296421CD9A15C002919D05B
:400F0000531CDBB2E55C5918083D012DF2D80232C9B2D3B299420DD902781D00002A04D109E05A1B825C002A05D0E2540133DBB29942F6D870BD0022E2540133DBB299423F
:400F4000FAD8F7E72034E67FCDE7C046A00400200022114B11491A70114B40311A70114B1A70114B1A704888104B18808888588088791873C9795A8219710621D981223152
:400F80001982FA21DA828900013A1A839982084B1F321A807047C046E8190020A0040020E0190020E7190020E6190020C0190020DA19002030B591B00500142225490BA8DD
:400FC00002F02DFA244C2378002B28D0002D2CD0224B1D606368002B33D0002108A806AB01811B31198059801739197108930823123105AA69444260137002F07BFC0028E7
:401000000BD105236168164A02900190009315480BAB02F0C5FB002809D011B030BDFFF797FF01232370002DD2D10120F5E701220D4B0F211A701032FF320C4816F088FCC3
:40104000EBE70B4802F0C8F960600028C5D10320E3E7C046B4CD01001C190020BC1900204410000029170000F019002018CF01005412000010B502F041FB0022044B1A7062
:40108000044B5868002801D002F0B0F910BDC046F01900201C190020030010B50120022B05D8184A1278062A02D00420FF3010BD0421154C22780A40F7D11448002B13D19E
:4010C00002004C321382026DA4311180983151800F4A4C30137013F077FD0028E7D10423227813432370E2E7012BF1D101004C310A82C821026DC9001180FA2109015180AA
:40110000E6E7C046F0190020E8190020A0040020E71900207047C046030010B50120022B10D81248002B0ED0012B14D0104A4030137013F0CFFC002804D104230D4A117861
:401140000B43137010BD02001E2140321181123151809180EAE70200962140321181802109015180F8399180E0E7C046A0040020E6190020E819002070B504250B4CFF3571
:401180002378052B01D0280070BD13F0C7FB084B06001B880500002B04D1002EF3D106232370F0E70FF076F9F7E7C046F0190020DA19002010B5041E28D0154B5B88013B07
:4011C0009A00D318134A9B00D3181A69197B506800290DD02278002A14D00139C9B2002303E00133E25C002A0DD0C2548B42F8D100212000FFF772FE20000121FFF76EFEDF
:40120000002010BD00230022C254F1E70120F8E70CCF010018CF010003784078000218437047C04610B51BF0AFFD10BDF0B55F464D4644465646F0B4264B90468A188146DD
:40124000C1B00F0001209A423AD80A0A4146130200293CD0013292466A46EB460024D61A012252425244944600215D1CFF359F4217D8A04515D94A461878125DF2548242C9
:4012800000D00121013401339D42F0D100290BD144451CD201239C46013EE244FF3E2B00DEE71A78F254EEE75946604600F01CFC444501D20028EDD0012801D9012040423E
:4012C00041B03CBC90469946A246AB46F0BD0020F6E7C046FFFF03000160704701607047314B324A1978324B09021B781943314B1B7812781B0213432F4A93424ED0D42228
:401300001201934246D02D4A13602D4B2D4A19602D4B1B7812781B0213432C4A134200D12B4B2C4A13602C4B2C4A1B7812781B0213432B4A93420DD02A4A93420AD0052B63
:4013400008D0294A1360294B1A68294B1B68AA2B09D07047274B244A1360244B1A68244B1B68AA2BF5D11F2AF3D91B4B1B780E2BEFD1214B214A1B7812781B021343204AB4
:401380001360204B204A1B7812781B0213431F4A1360DEE70429B6D11D4BB4E70729B2D11B4B0339AFE7C04659F1FF0F5EF1FF0F58F1FF0F5FF1FF0F580B00006C002E4065
:4013C00074002E405AF1FF0F5BF1FF0FFFDFFFFF0220000078002E405DF1FF0F5CF1FF0F0F0F00000505000080002E40EC0F00F0E00F00F0050F00006DF2FF0F6CF2FF0FF0
:4014000084002E406FF2FF0F6EF2FF0F94002E40580D000010B500F02FFE10BD10B500F007FE10BD10B500F067F810BD10B500F06BF810BD10B500F067F8034800F032F801
:40144000032000F035F810BD2512000010B5024800F03EF810BDC0462512000000487047020200002B2070472B2070472B2070472B2070472B2070472B2070472B207047D8
:401480002B2070472B2070472B2070477047C0462B2070477047C0462B2070470120704701207047014B18677047C0460000002010B5040000F011FBC021044AA40113683C
:4014C0008B431C43146000F00CFB10BD0CE400E010B58024054B64011C60054B18670320FFF7E6FF034B1C6010BDC04680E100E00000002000E100E08022024B52011A60D5
:401500007047C04600E100E08022024B52011A607047C04680E100E010B5838982B002000F2B04D000200E2B19D002B010BD1949F933CB5806200193DB0205D40121164AFC
:4015400013788B431370F0E7101D4023002116F0A8FA0121104A13788B431370E5E7101D3233002116F09DFA8A230121094A5B00D3580A4A5B680A4C13609A78DB78A170ED
:401580001B021343044A0733238013788B431370CBE7C04618CF0100E8190020DC1900202419002010B543681B890E2B00D010BD037A012B05D00121054A13788B431370C9
:4015C000F5E7012014F076FF0022024B1A80F2E7E81900202419002043681A890E2A00D07047427A012A05D001210C4A13788B431370F5E708211B68094AFF3113609A7868
:40160000DB781B02134307339BB2064A8B4203D8138001239370E7E71180FAE7E8190020DC1900202419002010B5094B187812F0CDFA002808D1074C2378022B04D102F083
:401640003FF82378022BFAD0FFF714FD10BDC046E4190020F01900209423F0B5164C5B00E35885B0070058680D001600FFF7D4FD0423C20702D4180005B0F0BD1133FF3391
:40168000E3582A005C683900200001F0C8FE0E230A4A01A950780B811378000218438D80019414F0F5FE002803D000233380013BE1E735800023DEE718CF0100E419002076
:4016C000F0B547469C00E31880B480460E0017005C0014D0124D05E00120013C00F0A8FC002C0CD001F0ECFFAB78012BF4D100232A88AB70B24209D33B80062400E01024DB
:4017000001F0DEFF200004BC9046F0BD054B4046196801F084FE2B8800243B80F0E7C04624190020DC190020F0B54746012380B4BB4C82B02278050013430E0023705028FC
:4017400013D8B84A8300D3589F464346042B0CD102333B70B44B1B78002B06D10120FFF7DBFC002801D143463B70112223781A4208D02378103A93432370AC4B31001B68C9
:401780002800984702B004BC9046F0BD080000F06BF92378DB0700D504E12378DB07E4D4002800D00FE1306814F0C6FEDDE7072301AF98463B70002338007B7004F024FC9C
:4017C00043463B70012338007B7004F01DFC984B186898468379002B08D10300811D1A78002A00D0E2E001338B42F8D1914BF8221978FC2389011B0119408F4B5202187804
:4018000000030300134019438C4B1A783F231340FE2219438A4B12041B785B041340894A0B4390464146137040461A0A1B0C4A708B7001F04DFF00214046FFF76BFC01213F
:401840004046FFF767FC032012F090FE3F233B70002338007B7012F0A7FE06227A4B1A7083E70B78042B00D07FE7774B1B78052B00D07AE7FFF780FC77E70B78002B00D00F
:4018800073E74B78002B0CD110227049704B8C46DA800132FF329A806E4A7360126862441A6001222378934323705EE723789B0600D55AE7684F3B78102B00D1A7E0674B21
:4018C00039001878984613F041F901A90880002800D097E0012322783900134323704346187812F097F840E70A785D4B1A703CE7554B1A78022A00D137E72178C90700D451
:4019000033E704212078014267D003221A7023788B43237029E7534B1B88002B3FD10222494B1A7021E70622474B1A701DE7464F3B789846022B00D117E72378DB0700D41A
:4019400013E704232278134251D022783B709A4322700AE70222414801F061FD0022404B1A7002E700223D4B5A701A70FDE62C234988FF3399420FD8308814F04BFDF4E6A2
:401980000800FFF729FEF0E62378DB0700D4ECE60800FFF707FEE8E696214900ECE70EF079FDBCE73000FFF7B7FDF6E601F090FE434600211868FFF7ADFB43460121186826
:4019C000FFF7A8FB3FE7122301A98B70B389C87030680B8014F014FDC7E608212078014218D006221A7023788B432370BDE608232278134200D1A8E606223A7022789A43F6
:401A00002270B2E6094B36201B68984762E70B3BFB7054E7032A00D0A7E603321A70A4E6E8190020C8CD0100E6190020BC190020000500207DF2FF0F7BF2FF0F7CF2FF0F04
:401A400078F2FF0F04050020F01900204410000028190020201900201C050020E4190020E0190020DA19002070B58389040000250B2B01D0280070BD04303533220000216F
:401A800016F00FF8051E05D001210C4A13788B431370EFE76068FFF7BFFB830706D58220074B21001B6840009847EDE70620044B21001B68FF309847E6E7C046E819002074
:401AC000BC190020000000000230800803D00138FDD1C046C046C0467047EFF3108072B6704780F310887047002330B5C5B0009301932D4B040098424DD800294BD080227C
:401B000004A8520001F08BFC284B9C4248D8284B0293FF23274A02A903932748116027490860C0461168090F0F2903D01168090F0A2937D0126813400093009D002D2CD196
:401B4000FFF7CBFF0195009B002B18D11C4A24040292029A02A91443164A02941160194C16490C60C0461168090F0F2903D01168090F0A2902D01368FF2213400093019BB3
:401B8000002B05D10193019B002B01D0019B0093FFF7A7FF01E004230093009845B030BD094BB5E70023C7E7FF030000FF010000B6D7000008001040040000800400104098
:401BC000B6D8000005000080B6D700010121022010B530240B4B1A688A431A601A6882431A60094A1068A043203C204310601068093CA0430143116080211A6809060A4356
:401C00001A6010BD00F02E4000FF2E400121184B0200186870B50840002A15D0012A12D1022407261968A143196012490D68B5432C4330250C600C68AC43103D2C430C604D
:401C400019680A431A6070BD02241A688A431A601A68A2431A60074B2E341A68A243203C22431A601A68093CA24311431960EAE700F02E4000FF2E4010B5FFF72EFFC021EB
:401C8000034A090213680B431360FFF72AFF10BD00010B4010B58024FFF71FFF0749084B0A68E4011A4022430A600A6813408022120213430B60FFF714FF10BD00010B405A
:401CC000FF3FFFFF104B1A68C0231B021A4219D10E4A136883431360C30703D5022113681942FCD1C30505D58022084992000B681342FCD1C30305D58022044992020B68BF
:401D00001342FCD17047C04600010B4010020B4070B50500FFF7E1FE104B04001A68C0231B021A4210D0FFF7B5FF0D4A0D4811680D4B28400B40184310601368FFF79CFF4E
:401D40002000FFF7CEFE70BD054A06481168064B28400B40184310601368F1E700010B4010020B4004040400FBFBFBFF254B10B51A680423134206D0234A51680B4233D1F7
:401D80000420FFF7C5FF1F4B1A688023DB001A4207D01D4A5168194217D18020C000FFF7B7FF184B1A688023DB021A420CD0164A52681A4204D0154B1B6A002B00D0984793
:401DC0008020C002FFF7A4FF10BD10494C6A50682340984350604A6A0D4B13404B62CB69002BDAD09847D8E708494C6A50681C40A04350604A6A9A438B694A62002BBFD01A
:401E00009847BDE710020B409C06002030190020FFFBFFFFF8B556464D4644465F46F0B40400FFF75AFEE51E82462D2D31D8464B1B789C4236D8454B1B78DBB29946444B42
:401E40001B78DBB29846434B5F5D9B462F2F01D92A2C38D83F26404B1A681640B74203D21F600520FFF730FE3C4B3D4A9C4664442378DBB213604A463A4B1A6042463A4B6E
:401E80001A603A4B187983001818FFF71DFEB74232D85046FFF725FE3CBC90469946A246AB46F8BD324B1B789C422DD9314B1B789C4232D8304B1B78DBB299462F4B1B786F
:401EC000DBB29846BFE71922234B05201A60FFF7FBFD224B224A9C4664442378DBB213604A46204B1A6042461F4B1A601F4B187983001818FFF7E8FD5B465A5D164B052055
:401F00001A60FFF7E1FDC4E71D4B1B78DBB299461C4B1B78DBB2984695E71B4B1B789C4208D81A4B1B78DBB29946194B1B78DBB2984688E7174B1B78DBB29946074B1B782E
:401F4000DBB298467FE7C04640F3FF0F41F3FF0F42F3FF0F6CD001002CFF0B404DF3FF0F28FF0B401CFF0B4020FF0B40A406002043F3FF0F46F3FF0F47F3FF0F48F3FF0F9B
:401F800044F3FF0F45F3FF0F49F3FF0F4AF3FF0F4BF3FF0F4CF3FF0FF8B501230F4A040011680B43802113600D4A0E4B09021A600D4A13680B43136000280DD001250B4F12
:401FC0000B4E3879FFF780FD33681D4204D1013C002CF6D1102000E00020F8BD60F02E400220000078002E4010002E40A40600200C002E40024B8000C318186819607047A0
:40200000400000201F2318401E3B8340014A13607047C04600E100E0034A044913681B041B0C0B43136070470CED00E00400FA05F8B5802507002D02A84214D904000B4EE3
:40204000B068FFF741FD0A4B9C466444AC42F7D8084BFB18DB0BDB036744FF1AF0687843FFF732FDF8BD014EF8E7C046A40600200080FFFFFF7FFFFF10B5034B1B79584363
:40208000FFF722FD10BDC046A406002070B5FF230600C0B09E436C466B4640AD1A1B925D1A700133AB42F9D1FF230340E25C8A4205D00002E154000C2100FFF715FD40B047
:4020C00070BDC04610B50C285DD8304B80001B589F462F4B09029C46494261440A7848788C780002230418430300C87813430006184310BD274B09029C46494261440878F5
:40210000C0B2F6E7244B09029C4649426144E5E7224B09029C46494261444A1C0B78107800021843E5E71E4B09029C4649426144D4E71C4B09029C4649426144DFE71A4BE4
:4021400009029C4649426144D9E7184B09029C4649426144E1E7164B09029C4649426144DBE7144B09029C4649426144D5E7124B09029C4649426144B0E7104B09029C4669
:4021800049426144BBE701220021C7E79CD00100E0FF0300C0FF0300C1FF0300C5FF0300C9FF0300D0FF0300D1FF0300D2FF0300D6FF0300D4FF0300D8FF0300DCFF030016
:4021C00010B500210520FFF77DFF012104000520FFF778FFE4B2C0B2002C03D0002806D0032003E0431E98410223181A10BD0020FCE7C04610B50B4C2379002B00D010BDB8
:40220000FFF7DEFF084B58705A78022A07D05A78032A04D05A781A7001232371EFE702221A70ECE758190020B8060020F8B5010005000320FFF746FF060029000420FFF7D4
:4022400041FF01363602341829000320FFF73AFF421C1202944217D9002700261378591EC9B2FD2900D80126DB190132DFB29442F4D129000120FFF725FF7B42DBB20200BE
:402280000620934206D0F8BD29000120FFF71AFF0620F8E773425E4176423040F3E7C046F0B54D4644465F465646F0B4C04C0121A54405000220FFF705FF0390FEF712FD68
:4022C00062B6BC4B0A240AAE9B460CE09621013C2B0004AA49003000E4B2FEF725FD002C0CD000281BD0002DF0D19621FF2304AA49003000FEF718FD002CF2D100280ED011
:40230000002DF0D05B465B79012BECD0A1239B009D443CBC90469946A246AB46F0BD04AB1B88062B5AD9042132788946012A49D0072300220420904692469C46013B029377
:40234000013B0193013B04AA911C52460A80012232704A4672704246B2700022F270002289469549A0AF8846FF1847443F78013BD2199BB292B2002BF3D153429BB2DAB215
:402380001B0A494698469146A0AB9A468B4B50449A464B46A0AA914650440370019B30004B441F004346904657443B70029B43441A001723524413700A007F336146FEF77E
:4023C000A1FC9DE77288924607329A4203D896235B009A4205D903239946A9E704239946A6E75346F3189B79172BA1D15346191D89B2002300290DD06F48A0AA8446521830
:402400006244127801399B1889B29BB20029F3D15B429BB25246B1184A79097912020A43082189469A4283D1727837791300313BDBB2142B00D98DE161499B00CB589F4678
:402440005B465B79012B00D19AE10723002290460432914600229C46013B0293013B01930420013B92466EE75B465B79012BECD15346012BE9D1012F00D8A5E20022072356
:4024800090460C32914600229C46013B0293013B01930420013B924655E701210B20FFF711FEC30700D485E14022464B1A6000235A461372FEF71CFCFFF7AEFDC5E75B4612
:4024C0005B799846012BC0D15346032BBDD104AB587F9B7F1B0218433B4B984200D95AE17902091809020B000139844600220800FF331978013B8A18D2B28342F9D1604652
:402500009146012F00D189E24B465B42E5E05346062B9AD107AA11002C4B81CB81C105237921F01800792A4F88428ED1013BDBB2FF2B08D0F018F95C0079884285D1013B87
:40254000DBB2FF2BF6D1594601230B724B710023CB800BAB03CA03C308220F23904600229C46013B02939146013B083201930C20013B9246E7E65B465B79012B00D064E779
:402580005B46D88853461F1896235B009F4200DC94E10022072390460332914600229C46013B0293013B01930420013B9246CAE67CFDFFFF58190020A7FDFFFFA8FDFFFFFC
:4025C000D0D00100C0000020FF01000024D101002CD101005B465B79012B00D035E75346012B00D031E73800FFF720FE390030710520FFF767FD02220923904600229C465D
:40260000013B02939146013B0232707101930620013B924697E65B465B79012B00D014E700235A46D3805EE65B465B79342A00D1CCE0012B00D008E75346022B00D804E7CC
:402640005B46DB881F21994655AB180098465346DA1E04AB9C464844614400F0E0FE4B4680220321033B53449BB252008946934200D1C1E000235A46D380073359E65B460F
:402680005B79012B00D0E0E65346012B00D0DCE63800FFF7CBFD002800D0EFE6012F08D80121D8487940FFF7F1FC3900D648FFF7EDFCD64B5F700AE15B465B799846012BEC
:4026C00000D0C2E65346002B00D0BEE6CF4B5878C0B2FFF7ABFD434243413371082300229C46013B02939146013B013201930520013B924627E65B465B79012B00D0A4E668
:402700005346012B00D0A0E6012F00D99DE600210320FFF7D7FC020483B2520E974200D1B8E100D8B3E100230022327104227371FF2390460022B371FE3BF3710A339C46AF
:40274000013B02939146013B043201930820013B9246F8E55B461F68002F02D05B79012B6CD00022072390460532914600229C46013B0293013B01930420013B9246E2E559
:402780005346032B00D1D1E00423FF339A4500D1AAE0FC3B5AE60723002290460A32914600229C46013B0293013B01930420013B9246C8E5954B5878C0B2FFF737FD002893
:4027C00000D074E68022924B1A6070E6012B00D03BE65346032B00D037E655ABCC3200211800984600F024FE04AB1F219C460022614495A800F013FE04AB5A7F9B7F1B02D3
:4028000013435A46D380834A9342C4D87F02DF197E4BBFB299461B78002B00D01AE101210320FFF74FFC80B2013080B2874200D3A5E000235A46D3800733ADE704AB1A719C
:402840005246DA800BAB99460C22002107A8069300F0EEFD4B4607A9099305A8B84704AB1A8A2623FF339A4226D9099B4B4500D19BE0002B00D195E004AB1B7BD11D9A4629
:40288000D3B29946531D0193931D101D02938BB29C46170A83B204A902310A8001223270524672704A46B2700022F77090469146002B00D168E552E5099BDAE755AB984675
:4028C000524640440BA900F0AAFD5B46DF80072300229C46013B0293013B01930420013B9046914692462EE504AB5A7F9B7F1F211B021343994655AB984604AB80229C4665
:4029000052006144404600F08AFD012F15D90022072390460932914600229C46013B0293013B01930420013B92460CE504AB5A7F9B7F1B0213439946E7E77B02354A4B4436
:402940001B02914500D926E75A1C55A9FF32C81A02E001339A42BAD01978C75C8F42F8D00022072390460232914600229C46013B0293013B01930420013B9246E3E4039BBF
:40298000002B03D04B465B78012B69D941463800FFF7AAF800239946002800D16AE60A33994667E6002A00D166E7072300229C46013B02939146013B0E3201939246042012
:4029C000013B0027002266E73800FFF72FFC002800D053E5104B39029C464942614438220BA800F01CFD38223F23904600229C46013B02939146013B383201933C20013BAE
:402A00009246A0E4D0FF0300D0FE0300B8060020C0000020FF010000C0FF03006346FF3BFF3B012B00D96FE5264BC718781E8741FFB239000520FFF745FB4B46181AC3B276
:402A4000994639000620FFF73DFB4B46181AC3B2994659E500210320FFF734FB80B2E3E64B465978C9B2012919D900235A46D380002290460D329146002207339C46013B9A
:402A80000293013B01930420013B92465BE4022300224AE6DB05DB0DDAB21B0A45E60320FFF710FB814601210320FFF70BFB4B4601339BB280B29F4200D267E78742D4D938
:402AC00064E7C04601FEFFFF030008200449DB000A688243D2B21840104308607047C046000004400300042004499B000A688243D2B21840104308607047C0460000044088
:402B00000121044A084013688B43DBB2184310607047C046000104400120024B1B6818407047C04604010440044A1368002BFCDB034B00021843014B1860704700000140B9
:402B400040000080034A1368002BFCDB024A014B1A607047000001404000004010B5FEF7BCFF0123074A11680B431360FEF7B9FFFEF7B3FF8022044B52041A60FEF7B1FF63
:402B800010BDC046000020400800204010B50B4B1A78002A0ED10A480A490B4C08600C200A49086001210A4801600A4804600A4802601970FFF7D2FF10BDC046611900207D
:402BC0000001000200012040FFFF00002401204038012040140120400801204010B5FEF77CFF0121034A13688B431360FEF779FF10BDC04600002040014B18607047C046F6
:402C0000300120408022044B92021A6084230349034AD1507047C04680E100E0ED0D00000000002010B50400FEF757FF044A054B1168A4030B401C431460FEF752FF10BD88
:402C400010E400E0FF3FFFFF10B58024054BA4021C608423044AD0500320FFF7E3FF034B1C6010BD80E100E00000002000E100E08022024B92021A607047C04680E200E0A4
:402C800010B5FEF72AFF0421034A13688B43136030BFFEF726FF10BD10ED00E070B53A4D2B78022B49D00120FFF71CFF374C384B22689A4221D92268354B9A4224D82B789E
:402CC000022B42D0A379002B11D0FFF7D1FF0120FFF792FFFEF7CEF9FFF734FFFFF77EFFFFF790FF40222B4B1A60FFF795F9FFF7BFFF0120FFF780FF70BD23680133236093
:402D00002268234B9A42DAD9FFF706FF002802D12379132B2BD9FFF7FFFE002822D0FFF7FBFE012814D0FFF7F7FE0128C7D1002300202371FFF7E4FEC1E7144C144B2268E3
:402D40009A421BD922689A42DED80123A371CEE76379132BE7D8FFF7D3FE63790133DBB26371ACE760710130FFF7CAFED7E7FFF7C7FE23790133DBB22371D0E70020FFF7DF
:402D8000B1FE0023236096E7F019002064190020B2150000C000002030B583B04F2806D8354B80001B589F46002013F083FB03B030BD324B1B78062BF9D10020FEF76CF949
:402DC000F5E72F4CA368002B01D02E4A13600020FEF762F9200000230C30A37400F048FC22000023113225001178143559550133013A062BF7D120001C2200211C3000F000
:402E000017FB1B23210020002377E43363771E4B1222E3832B6838312362AB882630A38400F0CCFB00233722A354184A137001224C33E254BBE70022154B1A70B7E70222EB
:402E4000134800F0ECFAB2E7124B01221878002110F0CEFDABE74B88142BA8D96A46142313805380002393806433D380094B694618780EF045FD9AE734D10100F019002077
:402E8000641900207C002E40FE050000BA060020F4190020E4190020F0B557464E464546E0B486B003AC0A220021200000F0C0FA0120FEF707FF0023614A9A181278E25411
:402EC00001330A2BF8D123889800C018638840009C00E4186400002300281DD0002C1BD0584B984200D87FE0574B58499C46604400F0D0F881300500524B9C426DD9524BC6
:402F00005249E01800F0C6F881300023FF2D03D8FF2801D82B0203434D4D4E4A2900AB604D4B38314D481C78181801330C549342F8D162B60120FFF7E3FD0120FFF7C4FD29
:402F40000120FFF7CFFD00F099F80120FFF76EF9002808D1424B1B78002B04D10130FDF701FFFFF759F8FEF785F83E48FEF722F804003D48FEF71EF9002C5CD0032C3BD0B4
:402F8000FFF738F93948FFF75FFEFF20FFF7CCFDFFF7FCFD364B4C2798461C239946354EA94400F08DFB0520FFF77AF90520FFF73FF83378002B03D1EC5DE4B2012C1CD0EF
:402FC000AB79012BEDD111F097FE4246022352684046137111F0F8FDE3E7274B1B49E01800F058F8013090E7234B18499C46604400F050F8451C7FE7FEE702F0BEFE022835
:40300000DED111F079FE43461C224946D86800F006FA42461C23D268D37743461100986802F050FE8246404611F0CEFD5346002BC6D13470C4E701A800F01EFBA0E7C046BB
:4030400043F4FF0FB88102007433FEFFF3030000641900201BF4FF0F07F4FF0FF90B00F014FE0300992D000074D201009D2C0000EC040020BA060020DC6FFFFF10B504484A
:403080000378002B02D10121FFF700F810BDC0460AFF0300002243088B4274D303098B425FD3030A8B4244D3030B8B4228D3030C8B420DD3FF22090212BA030C8B4202D3F0
:4030C0001212090265D0030B8B4219D300E0090AC30B8B4201D3CB03C01A5241830B8B4201D38B03C01A5241430B8B4201D34B03C01A5241030B8B4201D30B03C01A52410A
:40310000C30A8B4201D3CB02C01A5241830A8B4201D38B02C01A5241430A8B4201D34B02C01A5241030A8B4201D30B02C01A5241CDD2C3098B4201D3CB01C01A524183091E
:403140008B4201D38B01C01A524143098B4201D34B01C01A524103098B4201D30B01C01A5241C3088B4201D3CB00C01A524183088B4201D38B00C01A524143088B4201D335
:403180004B00C01A5241411A00D20146524110467047FFE701B5002000F0F0F802BDC0460029F7D076E7704703460B437FD4002243088B4274D303098B425FD3030A8B4296
:4031C00044D3030B8B4228D3030C8B420DD3FF22090212BA030C8B4202D31212090265D0030B8B4219D300E0090AC30B8B4201D3CB03C01A5241830B8B4201D38B03C01A1E
:403200005241430B8B4201D34B03C01A5241030B8B4201D30B03C01A5241C30A8B4201D3CB02C01A5241830A8B4201D38B02C01A5241430A8B4201D34B02C01A5241030AA2
:403240008B4201D30B02C01A5241CDD2C3098B4201D3CB01C01A524183098B4201D38B01C01A524143098B4201D34B01C01A524103098B4201D30B01C01A5241C3088B4264
:4032800001D3CB00C01A524183088B4201D38B00C01A524143088B4201D34B00C01A5241411A00D201465241104670475DE0CA0F00D04942031000D34042534000229C46B6
:4032C00003098B422DD3030A8B4212D3FC22890112BA030A8B420CD3890192118B4208D3890192118B4204D389013AD0921100E08909C3098B4201D3CB01C01A5241830988
:403300008B4201D38B01C01A524143098B4201D34B01C01A524103098B4201D30B01C01A5241C3088B4201D3CB00C01A524183088B4201D38B00C01A5241D9D243088B429C
:4033400001D34B00C01A5241411A00D20146634652415B10104601D34042002B00D54942704763465B1000D3404201B5002000F005F802BD0029F8D016E770477047C0466B
:40338000014B18687047C0461C0700200E4B70B500251E000D4CE41AA410A54204D0AB00F35898470135F8E719F06CFF084B00251E00084CE41AA410A54204D0AB00F3580F
:4033C00098470135F8E770BD90D2010090D2010090D2010098D2010010B5034B0100186800F07AF810BDC0461C07002010B5034B0100186800F024F810BDC0461C07002056
:4034000030B50024A24208D0035D651C0C5DA34201D0181B02E02C00F4E7002030BD002310B59A4203D0CC5CC4540133F9E710BD03008218934202D019700133FAE770474D
:4034400070B50500002944D00C1F2368002B00DAE418280000F0C5F81E4A13681100002B02D16360146031E0A3420DD92268A018834203D118685B688218226063600C60EB
:4034800024E0A24203D813005A68002AF9D11E689819A0420BD12168711858181960824214D110685268411819605A600EE0A04202D90C232B6009E021686018824203D142
:4034C000106852684118216062605C60280000F089F870BDB8190020032370B5CD1C9D43083506000C2D01D20C2501E0002D01DBA94202D90C23336048E0300000F071F8D4
:40350000234B1C681A002100002913D00B685B1B0DD40B2B02D90B60CC181EE08C4202D1636813601AE04B6863600C0016E00C004968E9E7174C2368002B03D1300000F03F
:403540002BF820602900300000F026F8431C18D00323C41C9C43A0420DD12560300000F041F8200007220B30231D9043C31A0ED05A42E2500BE0211A300000F00DF8431CAD
:40358000EBD10C233000336000F02CF8002070BDB8190020B4190020002370B5064C050008002360FDF72AFC431C03D12368002B00D02B6070BDC046F8190020030030B54A
:4035C000002A0DD00C7801335D1E013A2C700131002CF5D19A189A4202D01C700133FAE730BD704770470000134A1088810703D08107890F401A001D11791030484381B2CB
:403600005088820703D08207920F801A001D800040180A494030098980B2CA0701D0503080B2890706D504495422091F09785143081880B270470000D200002048070020ED
:4036400010B502F04BF910BD10B502F02BFB10F0E5FA10BD10B502F02DFB10F0E7FA10BD10B502F041F910BD10B502F053F910BD10B502F06BF910BD0121002808D0FF21B4
:403680008A31C1800321018006214180818000210846704710B50848FF2400680534401C08D106480068002804D102F0B3F9FE2800D00024204610BD68020020FC03002005
:4036C00010B500F099FA10BD10B502F0F9F910BD10B50749044609780220002907D1204602F034FA002802D1204611F0FDF810BD7E02002010B502F05BFA10BD10B50CF058
:4037000077FE02F007F902F00BFA084C2078002801D000F07BFA00F08FFAFF2001F0B2FAFF2001F0BFFA0020207010BDCC00002010B50CF05DFE02F0EDF802F0F1F900F0BB
:4037400065FA074908460C380CF034FE002806D10CF05AFE002802D1024A0121117010BD48070020CC00002070B504460120002C12D02368002B0FD0616800290CD0074D20
:4037800006222889208118462968FFF748FE6968606809780170002070BD000048070020FFB585B0002768460E9D07734F481C460078002802D0082009B0F0BD10990F98F1
:4037C00001900095029105A807C800F007F90028F2D16946264603AB84460873002C19D0002115E08A00B75A082F09D990198078002805D0083FB7521878401C187005E085
:40380000002914D00027B75290198770491CC9B2A942E7D360460028CED10F98002809D0109901F0FBFB002804D00120C4E701208446EFE702F06EF82D4800214160816088
:403840000599016021888180022D07D3A1798171A17AC171A1890181218A418100211EE0481C19E082008B00A75AE65ABE46BE4211D26F463E80B4461E190296B678BE70DB
:4038800001967646E6521719029EBB78B3706646A652019EBE70401CA842E3D3491CA942DED3134822460C3000906846037B0799069800F01BF90028B8D168460B4C007BBB
:4038C00060700B480C3002F0D3F80028AED1084907480C310CF06EFD0028A7D10CF094FD0028A3D10121217066E70000CC0000203C070020F8B5054636480F46007800283E
:4039000002D002242046F8BD002F60D000243249002D16D02A89D0070DD02868002808D003881B3BE12B04D24088FB2801D81B2801D2012409E0900707D56868002804D181
:40394000F7E70020088108604860002CDAD122482E8906811F481B21801D01804180042101711C490020891C0870F00705D019480622801D2968FFF752FD1749B00703D5BF
:403980006A68144812788270124D0E46AD1D281F0D60486002F000F9284602F0EFF8308915F0F0FB308914F0A7FB288814F0AAFB308915F079FD03461033FFF715FE1F21E8
:4039C000C018890140183880A91F88809AE7012498E70000CC00002048070020FFB58446384F1C460020BB883F78054602460646002F11D100290ED0029999420BD3614692
:403A0000002908D0002C06D00A99002906D02E4B0B99994202D2012004B0F0BD002144E0AB001F19BF78002F3BD0E35A002B38D07B43591889B22B0000F04AF80504101694
:403A40001C253100A7782388BC46FF27233BEB37BB4222D26346032B1FD322E0A388002B1FD0302B19D31CE02389002B19D0282B13D316E0A289002A13D01346134F233BDE
:403A8000BB420AD20DE0268A002A0AD033460F4F233BBB4201D2964203D901200EE0002001E000280AD16D1CEDB2099B9D42B7D31C2463435B1802998B42ACD89642AAD8EC
:403AC000AAE70000CC00002079020000BAFF000030B47446641E2578641CAB4200D21D46635D5B00E31830BC18470000FFB583B0002469460C801F4606468C80002806D054
:403B00000598002803D004983043800701D0012466E0002FFBD03449049809888842F6D3FDF794FCFDF782FC00F06EFC002855D100F0D8FD002851D12C49084601F0A2FAE7
:403B400005042D0C4AD12A480499066081800021C18007810C98007AC00704D0684601F051FF040007D10C98007A800703D501A801F070FF0446BF1DFEB2002C20D1314614
:403B8000059800F085F804001AD115F09BFC040016D16A461088928808368518144AF1B29088D288AEB29319984207D3401B801A80B201F059FD050007D000E0FF250124A2
:403BC00000F0BAFA002D04D008E0F8B200F044F9F6E700F0DDFA07490120087000F026FC204607B0F0BD0000D00000207D3D000054070020D800002010B50348007801282A
:403C000001D101F0D3FB10BDD800002010B5FF2400F006FE00280AD100F00CFC002806D10448007A801DC0B200F02EF90024204610BD00005407002010B500F00DFE01F0E9
:403C400053FA0449002008608880C88008810249087010BD54070020D800002070B5084B0446DA889E8803205518B54206D8186880182060D8884018D880002070BD0000A2
:403C800054070020014800897047000054070020F0B587B007460D4600208900009006916846FFF7DBFF844600285DD1304800990160002117E02E4B88001A6806291154FA
:403CC00006D22C4C0419667882185670628805E0C419203CA67A8218567022891B68C018491C4280C9B2A942E5D300242DE0601CC2B2059025E01E4FA300396896005818D4
:403D000040887118039604904E88B04217D938466F46FE80B6464F786E4677710297049F4F800168039F5E18767879184E700168764659184E800068029F18184770521CB2
:403D4000D2B2AA42D7D30598C4B2AC42CFD36046002809D168460699FFF780FF8446002802D1054900980860604607B0F0BD0000DC000020B8D20100E000002070470000C1
:403D800010B5002809D005494A68002A05D0011F08788000105801F015FC10BDDC00002010B50446FFF76EFFC0B2801DA0420CD307484068002808D0A100405801F074FB19
:403DC000002801D00470001D10BD002010BD0000DC000020F8B516460D460446FFF752FFC0B2801DA04203D20020C0430090F8BDB2B2E9B2684601F07DFB0099481C03D082
:403E0000024AA000526811500098F8BDDC000020F8B50746FFF736FF801DC6B20A49002005460C680DE06178002907D06188B94202D32078FFF7B4FF002804D1241D6D1C3F
:403E4000EDB2B542EFD3F8BDDC00002010B5002801D0FFF795FF10BD70B506460948002504680BE06178002905D062882078121D0023FFF7AFFF241D6D1CEDB2B542F1D373
:403E800070BD0000DC000020F8B5084F064600243D6808E0287879688000085801F03EFC2D1D641CE4B2B442F4D3F8BDDC000020FFB581B00A9F16000C4620D000F0F6F8BA
:403EC000054604281BD0002F0CD03846FFF7A0FF20492A0151184860002810D03A460499FFF79DFA1B4928010E504618778101980570200406D47D20C000444304E0FF20B7
:403F000005B0F0BD6404640C00F0BEF80746042807D000F06FFAA0420BD800F06BFA201A03E0204600F0CCFA0020F06035720020E6E700F05FFA009000F0D8FA009801214C
:403F4000001B009000F00CF902493A0151180098C860E6E760070020F8B5042801D3FF20F8BD060116483418217A042903D0E068002802D017E00020F8BD00F03BFA054653
:403F800000F0B4FA00F0A0F804280CD001010C480F18F8680021451900F0E2F80020F860284600F08DFA6068054D002801D0FFF74DFF042020720020A8516081E060DAE74A
:403FC00060070020FEB500266A46304601232549050169180D7A042D02D0C96800291BD000211154401CC0B20428F0D300246846005D002830D01B4821010818418947689B
:4040000005680291002101604160042241810272C160002E02D015E01354E3E700F054F804280ED001010F4808180190C6680021304600F095F801980021C160304600F0E7
:404040003FFA0126002D07D038460299A847002F02D03846FFF7FAFE641CE4B2042CC6D3FEBD0000600700200EB5002005216A4600901181508103486946006816F0ADF98C
:404080000EBD0000E4000020074A0020010189180B7A042B02D0C968002903D0401CC0B20428F3D370470000600700200549002002015218127A042A03D0401CC0B204280A
:4040C000F6D370476007002030B50A4B04200A4C00210A011219157A042D06D0D268002A03D09A4201D808461346491CC9B20429EFD330BDFFFF000060070020704700008D
:40410000F8B500250B4F2E462801C419217A04290AD0042121723E506068002802D0FFF795FE66606681E6606D1CEDB2042DEBD3F8BD00006007002030B50020074C0546BD
:404140000423020111190B72A5504D60401C4D81C0B2CD600428F4D330BD00006007002030B5094C00231A011219157A042D04D0D568002906D02D18D5605B1CDBB2042B7C
:40418000F1D330BD2D1AF7E760070020002070471CB5002469460C70142001902346054A054816F01FF904480068401C00D1FF2420461CBD0D420000E40000203EB5124ADE
:4041C0000146FF2000230124126800290DD0012914D0042908D104206946009308814B81104616F0FAF880B23EBD68460093048143816946104616F0EBF8F4E768460093B3
:40420000048143816946EBE7E400002070B545890468416800890300FFF75AFC08280509091E2228262800200AF098FA1EE0022908D0C8B22A46214613F0B2FE2046FFF7C6
:4042400005FE13E002202A46214613F0A9FE2946204600F00DF809E0002015F0A3FD05E02046FFF7AFFE01E0FDF714F9002070BD014B0022DB681847E800002070B5448906
:4042800005680089022803D0032809D0FF2070BD2246094C0023A46829460120A04708E0FFF7E2F9241DA2B20023294602200BF034FF002070BD0000E80000207047704765
:4042C000024800214160018041807047E800002070B50C46002186B016460391012802D0022859D116E003A901200BF06BFF01281BD1039D324621462846FFF790F8009567
:40430000287801900220694608814E816846FFF7B5FF41E0214D002B686809D0049004A902200BF04FFF01281DD0022006B070BD002812D0298840182146FFF770F8288819
:404340000024801980B228806988091D884206D12C801348FFF792FF03E00320E6E788421AD96C6018E004986860E278A378110219430B4A698000231060E35653600323E1
:4043800013815181A1788170E178C1706178417021780170042028800020C7E7E8000020A00700203EB515460C46022803D004280CD000203EBD00910190022069460881CA
:4043C00007484A81006816F008F807E013F0E8FD044B0022DB6829462046984701203EBDE4000020E8000020014AD16090607047E8000020034801688068081A0A21484337
:4044000000097047AC07002010B5FDF713F84C2204490548FFF703F803490120C870002010BD0000D4D20100B00B002010B5FCF7F9FF10BD0020704770B5134C2368002B8A
:4044400008D0207B1149C20705D04008400020738868A08070BD88680B4AA18880B29268814203D90A4D691A091802E0814202D2411A5118A160A080A0689842EAD315F043
:40448000C9FF00F013F870BDAC070020C0102E40FFFF000010B508461946FFF7A5FF10BD704710B5FFF77EFF10BD000003480021016041608160C16070470000AC0700206E
:4044C000024610B5FF20002A0CD0FFF7EFFF064C0321207B0843207310010A21FEF760FE2060002010BD0000AC07002000B504480A21806848430209FFF7D8FF104600BD5E
:40450000AC0700200248007B8007C00F70470000AC07002010B54B490868002802DA4A4B01221A70022290430860484800694549C00B4031096A0246C907C90F0A4259D0FA
:40454000012000F09FFB3F480E216C30FCF7C6FE3E4820218430FCF7C1FE3C4814219C30FCF7BCFE3948FF21C131A430FCF7B6FE3648FF212F31B030FCF7B0FE33483449A3
:40458000BC30FCF7ABFE31483249AC30FCF7A6FE30492E48491CB430FCF7A0FE2B482E49B830FCF79BFE29482C49CC30FCF796FE26482B490830FCF791FE24482949A8302A
:4045C000FCF78CFE214828498830FCF787FE1F4826498C30FCF782FE1C481921C9029030FCF77CFEFCF77CFEFCF738FFC0B2022812D01FE000290BD0002101420AD01148EA
:4046000001216030FCF76AFE0120FCF707FF97E70121F2E7FF2010BD15491648FCF75EFE14481549001DFCF759FE124800210830FCF754FE54200449C043891C08700020C9
:4046400010BD000000F02E40F800002000002E40320300002F3F00003102000010520000EC160000FA12000031D000003AE300009956000080012E40F80F000070B50646CF
:40468000581C80B245086D00002408E0304600F0C1F81055000A1119A41C4870A4B2AC42F4D3D80705D0D0182038D15CC47FD454C17770BD30B50A4C002100195B1E07E08D
:4046C000541864782502545C2C430480891C89B29942F5DB994201D1515C018030BD000000102E4010B5FF2000F0CCFA0F49FF2048700E481021801D4180012141700170E5
:404700000A490020C91C4870FFF704FF04000AD100F02EF907210648FCF7DEFD044807211830FCF7D9FD204610BD0000F8000020CC112E4070B5002405465B1E0AE02846B6
:4047400000F068F8010A161971702D1D1055A41CADB2A4B29C42F2DB9C4203D1284600F059F8105570BD000070B500210A4D5B1E0AE0541864782602545C34434619348062
:40478000001D891C80B289B29942F2DB994202D1515C4019018070BD00102E40F0B50599091FCFB200217E1E0BE0541864782502545C2C43164D45192C80001D891C80B2BF
:4047C00089B2B142F1DBFC0712D01C78515C24020F4A0C4381180C809C785D78001D210280B2294384182180001D80B2D9780CE059781A7809021143054A84182180001DAB
:40480000D9789B78090280B2194380180180F0BD00102E40014940180088704700102E4010B50B490020487000F0A2F8002000F04FFA002000F03CFA07210648FCF74CFD0C
:40484000044807211830FCF747FD002010BD0000FB000020CC112E4010B50C48007801280FD101F025F900F0DDF8002804D10848016A490849000162054802213030FCF70C
:404880002DFD02490020C91E087010BDFB00002040F02E4010B50B46062812D006DC01280CD0032801D1FFF7BBFF10BD0A28FCD00B28FAD105480078107010BDFFF712FFE2
:4048C00010BD1146184600F01FFA10BDFE000020F8B5244DAC6A0127A007234E002816DA307806280ED1286A384328621F480069F903084381B21D481030FCF7EFFC042079
:4049000000F0C0F9174802212830FCF7E5FCE00718D001F03BFA01280FD1002001F044FB062000F0AFF91049FF20C91E48707078002802D1686B384368630A480121283035
:40494000FCF7CAFCE0050BD53078042802D1052000F098F90348FF2101312830FCF7BCFCF8BD000040F02E40FB00002000002E4010B503212348FCF7B1FC0120FCF74AFDA1
:4049800020483038406A204C80076178800F890001431C480C38FCF7A1FC6078002808D0401E022181401820FEF7E4FCC000083800E0B82081B21548FCF790FC13480321B0
:4049C00009021438FCF78AFC10481149B830FCF785FC612189010F48FCF780FC0D480321001FFCF77BFC0C490C48FCF777FC0B480B496038FCF772FC084801218838FCF731
:404A00006DFC10BD70F02E40FE000020D8102E4090890000041E2E40FF0F000058122E40209000000449012009684907490F022900D000207047000000010B4038B5FCF73A
:404A40000DFD01F0B9F803211948FCF747FC0120FCF7E0FC16483038406A04218007800F084381B2009012480C38FCF737FC1148016802221143009189B2FCF72FFCB82165
:404A80000D48FCF72BFC0C48032109021438FCF725FC094C5321D83C2046FCF71FFC07210648FCF71BFC54212046FCF717FC38BD70F02E40001F2E40D8102E4098142E4032
:404AC00000B5FFF7AFFF002805D009480168C908C900016000BD0748016A490849000162054801690122D2039143016100BD000000010B4040F02E4000002E400848017874
:404B000006290BD140780749002803D1486B400840004863C86A01221043C86270470000FB00002040F02E400121002807D005494A8842804A784270097801700021084666
:404B400070470000FE0000200148007870470000FB00002002484078022800D001207047F800002000B50300FEF7B2FF080D050D0B070507090D012000BD032000BD042046
:404B800000BD022000BDFF2000BD0000074A9168D26889B2064B92B2994204D105498A4201D1012100E000210170704780002E4033D000003FE30000014948707047000076
:404BC000FB000020F8B504460120002C52D0217808294FD2617804294CD26088102166283DD800283BD065882348662D45801BD801270026BF020A2D33D90A212846FEF7B3
:404C0000CFFAC0B2072800D907200A2141438D4204D9691ACEB21F2E00D31F264101314339431648FCF758FB134D60786870217829701349496A8A0781001148920F1143C0
:404C40002430FCF74BFB687800280CD0401E022181401820FEF78EFBC000083804E06180C1E72946DCE7B82081B204482030FCF735FB0020F8BD0000FE000020B8102E4039
:404C800040F02E4010B50446FCF7D0FB072C01D9FF2C01D102480470FCF7C4FB10BD0000FB0000200149487070470000F800002010B5064A012805D01921C9021046FCF7F5
:404CC0000DFB10BD1D21C902F8E7000090002E4010B50A4A141D012808D009491046FCF7FDFA08492046FCF7F9FA10BD04491046891CFCF7F3FA0349491DF3E788002E4008
:404D000031D000003AE3000070B50C460546FCF7A5FBC0B202280E49287804D0FF2810D04C280CD810E0FF2809D10A4AD0680004800F032801D0087807E09069000A553837
:404D400003E00878207070BD4F382070087070BDFA00002000002E40F0B50122002834D0002932D00424420600D00524792342065B06D21800D0641C034600221EE00C252E
:404D800016466E43124D00277519AF72104F002ABB51696007D0661EB24209D10D4E86197606760E05E05E06760E8027BE1B00E080269B198919521C2E81D2B2A242DED3D1
:404DC00003480549006B002288611046F0BD0000380A0020790200000401002018B50020694608700A48006900280ED0132149014018047E684604704F21C900054800F0DA
:404E0000A9F8A04201D0012018BD002018BD000004010020BC070020F1B582B000206A4610700299002903D101F074F900283AD11E4F00240C2126464E43F519A97A0129C4
:404E40001DD11B49B859896988420BD14F21C900786800F07FF869460870132279685201891808762A89B9596868FCF7DFF900280CD028200299002905D0282803D0641C20
:404E8000E4B2062CD6D3641CE1B20AE00021A972F0E70C224A43D219927A012A04D0491CC9B20629F5D3FEBD2820FEBD380A002004010020074900200C2242435218927A0B
:404EC000012A05D0401CC0B20628F5D30020704701207047380A0020F8B50F000446164609D01A4D1A496868A04202D94018A04201D38E4201D90120F8BD39462046FEF7E3
:404F00007FFA002820D0324639462046FEF787FA0E49F0B2012620318E7600210C220B4653430A4A9A1813895568EF18A74207D9641B1B1B9672834206DAC01A1469C0B208
:404F4000491CC9B20629E9D30020F8BD380A002079020000034610B50020024604E09C5C2018521CC0B292B28A42F8D310BD000070B500F063F8084C064A216907480D4662
:404F8000FEF74DFA05492846FFF7E6FEFFF726FF207070BD7902000004010020BC07002010B500F04BF810BD002070470020054A002902D0012902D002E0906000E0D060E0
:404FC000002070470401002070B5084C154608460549E26889182A46FEF721FAE0684019E06028B270BD0000BC070020040100203EB50A226946FFF7E7FF044606480A227C
:4050000000686946FEF7FCF9002802D00020C0433EBD20463EBD000008010020002802D0044A914201D2FF20704703494A61086100207047790200000401002002480021C7
:405040008160C160704700000401002070B5074C15460548A26880182A46FFF73DFFA0684019A06028B270BDBC0700200401002010B503490A220968FFF7E8FF10BD000026
:405080000801002010B50F4A002313600E4A13600E4B18600E4801600E49012008600E490860000290600E490C4808600D4914300860FF381538506000F0BEF800F0CCF98B
:4050C000002010BD38010020200100204C010020500100203C0100202C010020800B0020300100204401002000207047014610B50020002910D0094B1A689C685118A1420E
:4051000009D25868196080188A0704D08A07920F891A091D196010BD002010BD20010020F8B50024164E671E321F3D463168136806E01422624310328A58521C1BD0641C8F
:405140009C42F6D36A1C14D02C461422544322460C3288500C214843FFF7C8FF3168002808510AD031680020103408517068401C70602846F8BD2546E4E73846F8BD000012
:4051800030010020F3B50026F64381B000281BDB1E490968884217D80299002914D01B4F142204463F1D54432546396810354859401C09D0FCF73AF938682F1F4159C35941
:4051C000994203DBFCF72EF93046FEBD214608310091465801590C20704308180C220299FEF71DF90948761C001D0068C159B14200D100260549009A091D86500868415955
:40520000491C4151FCF70EF90020FEBD2C010020002803DB07490968884202D90020C043704704491422091D0968504310300858704700002C010020F0B500200D4A451E3F
:405240000346171F50600FE014260146714314680E1DA3510C461668083433511668083435511468401C635039688842ECD30020F0BD000030010020F3B50026F64381B065
:40528000002841DB2349096888423DD8029900293AD0204F142204463F1D54432546396810354859401C2FD0FCF7C0F83868415900292BD0211D009146580C210059714341
:4052C0000F46C1190C220298FEF7A9F811480021001D0068761C00590C34C0190160416081600C48001D00680159B14200D100260849009A091D865008684159491E415134
:40530000FCF790F80020FEBD3046FEBDFCF78AF8FAE700002C010020FEB504460D4600201E49089E0860471E009001900290002C11D0486885420ED2002A0CD0002E0AD0D4
:40534000642E08D808460C3001681C2068430C18207A002801D03846FEBD0120226020721846FFF7DDFE6060401C13D06681A6810A4827610C3067610179A94200D20571F5
:405380000021684601810A462846029B00F040F82846FEBD00202072DDE700003801002038B50124009400F039F838BDFEB50027164EFF433D4600240EE01C2031686043D8
:4053C0000818017A002906D04068FFF721FF002801D0254603E0641C3079A042EDDA681C12D01C2130684D434419FCF71FF869466068FFF741FF0546FCF714F8002DD9D13C
:40540000216868468847D5E7FEBD00004401002038B50024009400F001F838BD1FB500220C49541E0A60002811DB496888420ED808491C220C31096850430818406801A929
:40544000FFF7A0FE401C02D0002004B010BD2046FBE7000038010020F0B50021114A4D1E174611710C3F0B46BD6016E008461C2460431668041D3551146806462350146801
:405480000836A3551468361DA353044616680A34335318301468491C255078688142E5D30020F0BD4401002038B500210091002811DB0F49097888420DDA0D4D04010C355D
:4054C00029680859002807D0201D0818694600F06FF9002801D0002038BDFBF7A7FF28680F34015D491E0155FBF79CFF009838BD54010020F7B582B0002502986E1E0660A5
:405500002E48D21C024017462D4A2C4610460C380178106805E02301C358002B0FD0641CE4B28C42F7D3711C28D03401211D40180191039900F02AF900281FD101E0264622
:40554000F1E71F48016820460C300F521C480399026820460E30115419480399026820460F3011540398784300F0A0F8144900280968085102D00024009011E001251AE0D8
:405580000F48016801980818009900F02CF9002801D0012502E00098C0190090641CE4B203988442ECD3002D05D10298066004480179491C0171284605B0F0BDFCFF000021
:4055C00060010020F8B50D4600216A468C461180002839DB23490978884235DA214B04010C3319680A59002A2ED020460C300B5A801C0E5C184670438018954224D38542ED
:4056000022D2002006E007465F43BF18AF4206D0401CC0B2B042F6D36046002814D0114E271DC8190C366A46294600F006F900280AD168460088012808D030682946C019BA
:4056400000F0D1F8002803D00120F8BD0020F8BDFBF7ECFE30680F34015D491C0155FBF7E1FEF3E754010020F8B50F46002400F031F8002817D10C4900220B460C334A60DB
:405680000EE021011D680E466A501D680C36AA53B61C1D680F31AA551D68641C6A54E4B2BC42EED31A71F8BD5401002000280BD0C01C074A81085068890053884118994217
:4056C00003D8936851601818704700207047000054010020F8B5064600200F4D009029700C0121466846FEF7B9FA00280CD129460C3100980860301B001F84B22146684622
:40570000FEF7ACFA002801D0FF20F8BD6C800098A8600020F8BD000054010020F8B5002827DB19490978884223DA174C05010C342168485900281CD028460C30085A009027
:4057400028460E300E5C401C0E5420682F1DC01900F064F800280CD12068002445590EE0094829460C300068C01900F03CF8002801D00120F8BD00982D18641CE4B2B44206
:40578000EED30020F8BD00005401002030B50D4604000BD0A800FFF789FF6060002805D000202570C0436080002030BD012030BD70B50D46040005D0002D03D00220205E40
:4057C000002801DA012070BDFBF730FE0221615E60688900405828606088401E6080FBF721FE002070BD70B50D46040007D0002D05D002212078615E401E814201DB012074
:4058000070BDFBF713FE6088401C00B26080616880000D50FBF706FE002070BD10B5040009D0227800216068FDF702FE0020C0436080002010BD012010BDF0B500231D4657
:40584000002802D00224045F0AE00120F0BD46689F00F6598E4201D1012503E05B1CDBB29C42F4DA15700020F0BD00000148007870470000680100207CB505460024FDF70F
:40588000F3FEA8796946087000A8062229460130FDF7C5FD0021684609F05CFA0C2806D0072806D01F2806D0122806D006E0022404E0042402E0272400E0012420467CBD46
:4058C00010B50024FDF7D0FE0021084609F046FA0C2800D10224204610BD00000148012141727047BC0C002010B502280BD0032802D0042809D102E000F0F6FC05E000F0D4
:40590000A1FDFF2801D100F0B1FDFFF71DF9FFF729F910BD10B500F0D9FDFFF715F9FFF721F910BD10B50024FFF7F4FF012808D10548818B03E0481E0140641CE4B20029DF
:40594000F9D1204610BD000060102E4070B504460025FDF789FE002C06D0A079012803D8214604F043F800E00125284670BD0000FEB505460D208001019000200C460090A8
:40598000002D11D0002C0FD0FDF76EFE1B48878B008B742186461948603801800020287001461748844622E001200090FEBD0120884086B21148019A603810180388028813
:4059C00000883E4211D02E78761C2E7023701B0A6370A270120AE2702071000A60717046C840C007C00FA071E41D491CC9B2604600798842DBD80098FEBD000060102E405E
:405A0000F00B002001460120002902D0502008800020704770B5084D0024284603F0A9F9002807D0FDF720FE284600F0F1FD012800D1FE24204670BD1C0C002001460120BC
:405A4000002903D00248007808700020704700006A01002001460120002905D0034854220078504308800020704700006A01002010B502460D49FE2048700324104614F0B8
:405A8000CFFF002810D114F073FF00280CD10AF0F5FB002808D100F04DFF002804D109F059FC002800D10024204610BD6801002002480021018280210180704700102E4004
:405AC00042680121002A08D00268002A05D004494A600449406888600021084670470000BC0C0020680100207CB505460024FDF7BBFDA8796946087000A806222946013000
:405B0000FDF78DFC0021684609F036F90C2802D01F2802D002E0022400E0072420467CBD10B5FF2414F0F4FF002804D114F020FF002800D1002403490020486002494872EB
:405B4000204610BD68010020BC0C002070B50025044600280ED0A07901280BD8FDF784FDA0790028204602D004F0F2FB03E004F0C7FB00E00125284670BD0000014610B5AD
:405B80000120002904D006220248FDF748FC002010BD00007401002001460120002903D00878024908700020704700006A01002010B506F0EBFB10BD10B5002404F0CCFD7E
:405BC000002800D00124204610BD7CB5FF24069E079D00280BD0002909D0002A07D0002E05D0002D03D0002B01D01B2B01D901240BE00096019506F0E3F9042802D005285B
:405C000002D002E0292400E0002420467CBD7CB5FF24069E079D00280BD0002909D0002A07D0002D05D0002E03D0002B01D01B2B01D9012406E00096019506F008FA0428A4
:405C400000D1002420467CBDF0B589B015460F4606460124FDF708FD002E20D0002F1ED0002D1CD0102239466846FDF7D8FB1022314604A8FDF7D3FB1021684614F0F2FD35
:405C8000102104A814F0EEFD2B46102204A9684606F0AEF91021284614F0E4FD0024204609B0F0BD10B508F0D1FF0AF0A3F908F059F910BD10B508F0C9FF06F05BFC09F004
:405CC000FBFF10BDF0B5002493B00E46054627461094FDF7C9FC01F0F1F8002836D0002D0CD0EA7F1F2A01D9012407E000A829460130FDF794FBE87F69460870002E0FD059
:405D0000002C29D1F27F1F2A01D9012424E008A831460130FDF783FBF07F08A9087001E0002C19D10020002D05D011A9684601F015F910900120002E05D011A908A801F07F
:405D4000B1F9074601201099394301D0022403E0002801D001F062F8204613B0F0BD70B505460124FDF780FC002D04D00821284614F054FB0024204670BD10B5FEF7E4FEAF
:405D8000012801D1FEF7E6FE10BD00000148007A70470000BC0C00201CB5FF206946087100200870FDF760FC6A4601A90620FEF771FD6946002008561CBD000038B50446C0
:405DC0000120002C20D0617801291DD800290BD0FF25E535FDF748FC0C4828180088C0B22070072803D00EE0FF25CD35F2E70020694608706846FEF7C9FE694608780128DE
:405E000001D108202070002038BD000000102E4010B507480024807B002806D00448203002F0FEFF012800D1FE24204610BD0000FC0B0020F8B5012406460D46002925D084
:405E400013480078002808D0FDF70EFC694630460EF0C0F8040003D018E000200880F8BD6846008802F0D6F906000ED002F081FF00280AD00748F121007B0840C00602D53A
:405E8000308A288002E0022400E006242046F8BD68010020B00B0020014A0021926810476801002008B500226B461A7026280CD0094A342852680BD0352805D1900703D57F
:405EC000002135200AF0C2FA08BD19462620F9E7D007F9D03420F5E76801002001460020002902D0024A5160704701207047000068010020F7B582B001A90EF06BF805006E
:405F00004CD1FDF7B1FB6846808802F083F9040043D002F02EFF00283FD0FF278820493700593E46002805D01E49097B890601D5878AC68A204600F089FB01280ED006F063
:405F4000C5F850210A5B617901F0A8F9283081B233463A46204605F0EFFA09E00096264604994036328A3B46084605F0C3FAF08220464030C28A04998A4200D9C182C18ABB
:405F8000A07804F09DF90398012801D901200390A078039904F060FB00E00625284605B0F0BD0000B00B00200149087270470000BC0C002010B501F0C9F810BDF8B50E468C
:405FC00069460EF007F805001BD1FDF74DFB6846008802F01FF904000AD002F0CAFE00280FD0E08A002E05D001210843E08205E0062506E040084000E0820221204603F051
:4060000073FA2846F8BD0000F8B504460120002C26D06178012902D92278092A20D8002905D0FF25E5352078092803D004E0FF25CD35F8E708202070FDF716FB2078114F7D
:40604000114E08280DD00020FEF742FE70780128207810D00D4969180880FE2070700020F8BD0120FEF734FE0720B8810549203188800120F2E7B8810248217820308180EE
:40608000EBE70000C0112E406801002000102E40F8B50E4669460DF09DFF050033D1FDF7E3FA6846008802F0B5F8040019D002F060FE002826D01548F121007B0840C0067D
:4060C00021D520464030418A008A491C41430804C00C0F4986420CD326822079072802D011E006250FE001200870204601F03AFB09E0002E07D100200870A078002103F09A
:40610000BFFB00E002252846F8BD0000B00B00206801002010B509480024807B00280BD0FEF712FD062801D0032800D12824FFF76FFEFE2800D12824204610BDFC0B002094
:4061400070B50E46050001D0002400E00C4C002C11D0E28A500609D5D107C90F022004F05BFAE08A40218843E08204E0D107C90F012004F051FA3146284603F01BFE70BDA2
:406180001C0C0020F8B50546002004460D4E009013E022466946284601F00CFB0098002801D014F01FFCA878214603F0F9FAA878214603F0E7FA641CE4B2308AA042E8D8F0
:4061C000F8BD0000E80C0020F7B58E462249086820308078002802D08446002338E0FF20FEBD1D48212100680D5CE9000A1856799779D47912794058B2420DD314F0F2FBC3
:406200001548006820304178491C8907890F41708178491E8170E2E78118B61A0098F6B20160BC4212D1A64204D290197146C0B20E7003E010197146C0B20C700299EA0009
:406240000D70054909685118087103E05B1CDBB26345C6D30020FEBDD0010020064A02235188891C89B25180814201D8102900D953805088704700007A0100200148407861
:40628000704700007A010020F8B50D460446FBF7CDF8144E3068034620339A78042A1CD0E178A77809020F431978521C491C8907890F19709A70CA008450101847713168BE
:4062C00000205118087130681018C571306810188571FBF7A7F80020F8BDFBF7A3F8FF20F8BD0000D0010020F8B54E4CFEF72CFC012847D14C480078002843D003F0E2FC7B
:4063000000283FD008F088F900283BD0474E7078C00703D000F0D8FD012833D0307E00287DD17078002500285BD0000706D540488089070B00F02EF9384370D13B4841785A
:40634000684605F0CDFE217A3A4CA2788918C9B2814262D803F0B6FC002860D0344860300789324E203603F00BFA6846008803F053FA03F035FB30490988884203D1012092
:40638000FEF780FC4BE02D49012008702748807B00281DD0002F1BD04036F07E002817D123486030008821494000C031498981420AD26078002807D104F06CF92049088AEA
:4063C00003221202104308822078002800D0257003F084FA0120FEF7EFFB00F0D5FC174C15E003F06FFC002819D0102403F0F8FA214603F07DF903F00FFA104C0120207077
:4064000003F06CFA0020FEF7D7FB00F0BDFC20780128B4D1FEF754FB25700020F8BDFF20F8BD0000F00B0020F8000020FC0B0020A0102E4092010020A40100207A01002020
:40644000E0112E4010B50848FF244078002809D103F038FC012805D1FEF7FEF90720FEF711FC0024204610BDFC0B002038B5FEF76BFB012801D0002038BD03F023FC002881
:406480000AD0114C6078C00703D000F01DFD012802D0207E002801D0FF2038BD617800290FD0684605F01CFE022806D96846008803F0B2F9012003F01BFA0320FEF7E2FBEA
:4064C000D9E70020F7E70000FC0B002038B51E4CFEF73AFB042813D0052811D0062812D003282AD007280AD100206946087002460120FEF7CFF9FEF727FB0128FBD138BD6C
:4065000000F062FC38BD03F00BFA00F05DFC03F0A1FA8007800F0228F4D10C4841880029F0D05B21095D0029ECD101210170A07D0140022004F070F838BD03F0F5F9012010
:40654000FEF7A0FB38BD00001C0C002092010020F8B50646002404F0DDF80546304604F0F3F803460A480021068A0DE001228A401046174628401F40002803D0002F01D179
:40658000224394B2491CC9B28E42EFD82046F8BDE80C002070B500252C460A4E03E0002C01D0002000E030460079002803D02046FFF7CEFF0543641C2406240EEFD0284632
:4065C00070BD00001C0C00201CB50020694648706846FFF7F3FB01AA69460A20FEF75AF96946042008561CBD70B50D4601F012FE04000BD02079002808D0FDF735F8E178FB
:40660000A0782A4603F084FC002070BD022070BDF8B50646002402F0E7FB05000CD1074F07E0B178204600F0F9F9012805D0641CE4B2F889A042F4D22846F8BDE80C0020CE
:406640000148007970470000F00B00204030C07E002800D00120704700B500F001F800BD902148430749084A40186030417F491CC9B24177D289914201D300214177C8B23A
:4066800070470000FC0B0020E80C002013B501F0C1FD04000BD002F06CFB002807D0214601AA0A310620FEF7F5F800201CBD02201CBD000010B50C4601F0ACFD00280AD03E
:4066C00002F057FB002806D0224604490A20FEF7E1F8002010BD022010BD0000DD0B0020F3B581B0074601460026029804F00AF80446002F01D0002500E0154D002D21D0D5
:40670000284601F0BDFD032C04D13946029804F055F806463846029903F034F8032C06D0002C10D00121384601F09AFF03E03146384604F027FB284602F0BCFE022128468A
:4067400002F0D2FEFEBD3846029903F01BF8FEBD1C0C002010B5044600F0C0FA002804D105F0F8FB002801D00C2010BD2078611C03F0F6FCFF2801D01F2010BD03F03CFDC0
:40678000FF280AD02178621C02F084FF044821780068026B601C904710BD072010BD0000B801002010B505F0D5FB002801D00C2010BD03F0B7FC03480068C06A80470020BF
:4067C00010BD0000B801002070B50D460446102114F048F810216018064614F043F8334610221946204605F003FC1021304614F039F802202870204608F0D0FC70BD000037
:40680000FEB504464078217802028006870FE0781143A5780E050002360D0543304601F0F9FCEAB23B4621460096019000F06EFA0006000E14D10B482246006801994369C0
:4068400028469847C0B2FF280AD10198EAB24030817EFF23491C81762146019800F00BF9FEBD0000D40100200020704710B5044605F070FB002801D00C2010BD2078611C44
:4068800003F06EFCFF2808D003F096FB044821780068426B601C904710BD1F2010BD0000B801002010B500F0ADF908F053FD002010BD000010B504460F4802F0B1FA01283D
:4068C00017D00D4805222146B030FCF7A8FD0A490522B0310846C038FCF7A1FD01F098F8054880222038C17B1143C17300F0C6F910BD3A2010BD00001C0C002010B504469E
:4069000000786178E2780843A17811430843217908436179084305D005F006FB002803D00C2010BD122010BD204603F011FD002010BD000010B5FAF791FD03F00DFF0448FE
:4069400005F0E8FC03F042FB012000F003F810BDC40B0020F1B586B003A8009005A801902A489F22017B114001736846FCF7FCFE002849D169460989C90705D024480699AF
:406980000068C2686846904769460989890706D5002839D11F480068816A06988847002832D11D4E0025757075737571F575357675767575B570F570B5713746F5730120AD
:4069C000D03738731F20F880FF2130467972A0300176457600F082FB04F0AEFF02F0AAF900242046069902F057F9002803D1641C2406240EF5D0FD720749BD72B573C031F9
:406A00000D704D704D600D7207B0F0BDB00B0020D4010020B8010020FC0B002070B505460E46084603F076FE0446304603F08CFE0121A9400A46224001400A4301D00120C9
:406A400070BD002070BD10B50446084603F07CFE0121A140014201D0012010BD002010BD10B5FEF771F8032804D102F05DFF0120FEF708F910BDFEB51C4616460F4605467A
:406A800002F018FDA878FFF7E7FD02460190334639460094284600F00DF8002808D1A8780199FFF74DFBFF2C02D1384613F09AFFFEBD0000FFB585B005460E980C46FF28EE
:406AC00010D02B49C00009680A5840180179C0795278814201D9012601E09006860F6846038108E06078A1788006860FE0780002014368460181284602F076F9070007D069
:406B000021462846079A00F0D6FD384609B0F0BD304600F0E7FE04AE0346039002AA29460096204600F07BFC3C20405D002818D0284602F059F9012813D06846008900964D
:406B4000C0B20190A878231DFF22079903F0E6F868460089039BC2B2A878079903F024FDD3E7684600890021C0B20091E9E70000D0010020F8B5002600253046FFF7E8FCE5
:406B800007001DD090201149704340186030447F12E0601CFCF704FBCCB23846E040C007C00F07D02146304602F0E2FD21463046FFF796FD6D1CEDB20548018AA942E8D8D1
:406BC000761C3606360ED7D0F8BD0000FC0B0020E80C002070B50024094D03E0002C01D0002000E028464121095C012901D100F018FD641C2406240EF0D000F03FF870BD47
:406C00001C0C002010B503F0E1F90020FFF7A2FE13F07EFF002010BDF8B5002400F04EF90125012800D1012404F022FE012801D102200443104F00203E46203604230822E8
:406C400003E0002801D0002100E031460979002907D001290BD002290BD0114681402143CCB2401C0006000EEBD07C70F8BD2C43F7E71C43F5E70000FC0B002070B5144E37
:406C80000024F07BC00921D03546203503E0002C01D0002000E0284602F09CF8012814D0641C2406240EF2D0F07B4006400EF073002403E0002C01D0002000E0284600F078
:406CC000B0FC641C2406240EF4D0002070BD0000FC0B002010B5FFF79FFF10BD10B5044608F020FD002802D1601C00F001F810BD1CB500240094062269460194FCF780FBFA
:406D0000002800D1122420461CBD0000F8B5044600201E4617460D46002C12D0002D10D0022E0ED0032E0CD0002F0AD02179092907D0002905D013494A7F5A21095D8A4208
:406D400007D82089002108F016F9284613F04AFEFF20E18F012905D1002F03D0012E06D0002E04D0374301D10121E187F8BD0021E187069A2A70069A120A6A70AF70E970B6
:406D8000F8BD0000B00B002070B50E4CFAF7A5FE0546FDF7D9FE062802D02078012803D02846FAF79EFE70BDFBF76AFF2846FAF798FEFDF7C9FE0628F5D020780028E5D1EA
:406DC00070BD00007A01002010B5FAF786FE0446FDF7BAFE012809D0FDF7B6FE022805D0FBF74EFF2046FAF77CFEEEE72046FAF778FE10BD10B50B4681791943817103D042
:406E00008078114603F056FB10BD10B582798A43827102D1807803F061FB10BD30B50C4C0220A28A0B4B9978002901D0022906D11D785B78EB18282B01D9032002E00329D4
:406E400000D101205105490DC0020143A18230BDC0112E408801002000B500F035F8002807D0012805D0032801D0042801D0002000BD012000BD000002460448018B0020B3
:406E8000C908114200D001207047000000102E40014600B50020C90701D000F00FF800BD014600B50020C90701D000F007F800BD01480068704700008001002001480088D4
:406EC000000A704720102E400448008B410501D5042070474007800F7047000000102E400148406870470000800100207CB50446002568460570200610D5FFF7E5FF012840
:406F00000CD101A802F02AFD6846007900F0D7FB012002F04BFB0220FFF7DCFE600712D50C48017901290ED10571684602F016FD6846007800F0F8FB0220FFF7CBFE002125
:406F40002620FEF7AFFF044800680169204688477CBD00008C010020B801002010B501460A4A007800241070FFF7A8FF0128084603D003F059F9204610BD00F0F3F804005C
:406F8000F9D1034801210170F5E7000088010020BC0C002070B50446FFF790FF002801D00C2070BDA27B01211F48002A827801D00A4301E05208520082706279012A14D025
:406FC000C17849084900C170184D2868016820468847207901280CD06188208804F086FA2080207904280FD015E0C2780A43C270EAE72868C168E01D8847E01D03F094F992
:407000000B48008D208006E02868C168E01D8847E01D03F089F9074920798870204603F011F9002070BD0000FC0B0020B8010020B00B00208801002008B50178FFF73EFF75
:40704000814201D10C2008BD002914D0072069460870FFF701FF012807D10121684600F0F1F8012801D0092008BDFFF7D7FE03F01DF9012011E0FFF7EFFE012806D1684630
:4070800002F06CFC6846007800F04EFB03F004F9FFF714FF0028FBD10220FFF71BFE002008BD000010B501460A4A007800245070FFF704FF0128084603D003F0DBF92046E8
:4070C00010BD00F071F80400F9D1034801214170F5E7000088010020BC0C002038B5684613F016FC002801D01F2038BD01210098C9020180418000250571457185710721FE
:407100004173857303F09EF8009C202200212046FCF78EF925702A460021601CFCF788F9204603F081F8204603F0A4F9009813F059FC062200210448FCF77AF902480C38E4
:407140008560002038BD00008C010020034A918A042319439182024948807047C0112E408C010020F8B5044600250D4800950078012806D0684613F0CBFB002803D0072599
:407180000CE00C250AE0074E009830602278611C401CFCF744F93168207808702846F8BDBC0C002080010020F8B5044600250D4800954078012806D0684613F0A9FB002819
:4071C00003D007250CE00C250AE0074E009870602278611C401CFCF722F97168207808702846F8BDBC0C0020800100200346084800B5834209D8184601F00CF8002804D073
:407200000089984201D1012000BD002000BD0000FF0E0000074A9179491C8906890E917138220A4092014907090E11430843024908407047FC0B0020FF0E0000C006C00E1A
