:400000000080002011000000F5080000F508000010B500F057F900F075FCC04670B572B680260024314DF60032002C600021304801F079F9320000212E4801F074F92E4AC5
:400040002E4B1A6099222E4B12041A6006232D4A11780B43137020232B4A2C4913602C4A11602C4A136006222B4B1A602B4B0C321A6000F023FD012000F040FD302000F07B
:4000800073FD274A274BFA201A600223264AC00011680B431360254A254B1A600822254B1C602B6893432B6000F020FE224800F0BFFECC22214B92011A60214A214B1A608A
:4000C0008022214B12061A608022204B12031A6040221F4B1A601F4B1F4A1C60032313601E4A13601E4B1C6070BDC0466CF02E4000300F4000400F40000099EE0000024002
:4001000000500F4000700F40000004400010DB00080004401800044008040440300010400600008004010B4078002E402D3E00007C002E4064F02E40DC05000000030140C2
:4001400040FF00800000014008010B4000010B40040101400C020B403000304030003140000E3F4010B5064C2378002B07D1054B002B02D0044800E000BF0123237010BD01
:40018000500200200000000040130000084B10B5002B03D00749084800E000BF07480368002B00D110BD064B002BFBD09847F9E7000000005402002040130000C8010020EA
:4001C000000000000047C04610B50C285DD8304B80001B589F462F4B09029C46494261440A7848788C780002230418430300C87813430006184310BD274B09029C4649421F
:4002000061440878C0B2F6E7244B09029C4649426144E5E7224B09029C46494261444A1C0B78107800021843E5E71E4B09029C4649426144D4E71C4B09029C464942614409
:40024000DFE71A4B09029C4649426144D9E7184B09029C4649426144E1E7164B09029C4649426144DBE7144B09029C4649426144D5E7124B09029C4649426144B0E7104B4A
:4002800009029C4649426144BBE701220021C7E744130000E0FF0300C0FF0300C1FF0300C5FF0300C9FF0300D0FF0300D1FF0300D2FF0300D6FF0300D4FF0300D8FF03003C
:4002C000DCFF030010220D4B10B51B6813400C4A00D113601368802B00D010BD0023002102201360FFF770FF0028F6D000210220FFF76AFFFFF766FFEFE7C04600030B404B
:40030000C0000020F8B5010005000320FFF75CFF060029000420FFF757FF01363602341829000320FFF750FF421C1202944217D9002700261378591EC9B2FD2900D80126A4
:40034000DB190132DFB29442F4D129000120FFF73BFF7B42DBB202000620934206D0F8BD29000120FFF730FF0620F8E773425E4176423040F3E7C046F0B544465F4656469E
:400380004D46F0B4CA4CA54400F038FF62B6002300939B4605AB994603AB019302AB9E1CC44B08AC9A469621FF2302AA4900200000F02CFF0028F6D102AB1A88062A33D9D3
:4003C00025780423012D31D000250420002101226370002331802270A570E3700023B64D9EAAAC4612186244127801389B1880B29BB20028F3D15B429BB2DDB21B0A9EAAE5
:40040000AE48521810180570AD48073110180370AC4B89B29C4617236244137020007F33320000F027FFBEE70423CDE7618888460731914200D904E196225200914200D9B0
:40044000FFE04246A2189279172ABDD14346191D89B2002900D1F4E1002397489EAA844652186244127801399B1889B29BB20029F3D15B429AB24346E01841790B020179FD
:400480001943082391429FD1627827791300313BDBB2142B00D9C8E051469B00CB589F465B46012B00D1CEE000250420042300218DE70020FFF726FF002802D18023824AFC
:4004C000136000F09FFE002500F082FC0420042300217CE75B46012BE6D14346032BE3D102AB587F9B7F1B021843784B984200D97BE17902091809020B00013984460022EB
:400500000800FF331978013B8A18D2B29842F9D160469046012F00D195E143465B42237105200023012152E74346002BBCD14B46674A082503CA03C34A4609AB03CA03C380
:400540000023009301339B460C20002308213EE75B46012BA8D1009B43441D0096235B009D4200DCF4E000250420032300212EE75B46012B98D10023009314E75B46342A60
:400580006ED0012B90D14346022B8DD9009D4346AC4602A953A8DA1E60441F238C466344190000F0B7FE2B0004224344FF329BB293426AD0002300250093042003330021C6
:4005C00005E75B46012B00D06EE74346002B00D06AE70020FFF796FE434243410121237105200023F3E65B46012B00D05CE74346012B00D058E7012F00D955E7354B1B68D2
:400600001B685A0CD2B2974200D132E100D82DE1002300226371FF23A371FE3BE37122710425082000230421D1E62B4B1D68002D02D05B46012B51D0002504200523002171
:40064000C5E60323C0E64346032B75D00423FF33984500D18CE000250420FF3B0021B6E6012B00D020E74346032B00D01CE7CC32002153A800F057FE02A98C461F23634402
:400680000022190093A800F045FE02AB5A7F9B7F1B0213431A0000930C4B9A4200D8A9E0FF3BFF3B9B4600250420093300218EE684FDFFFF78130000A7FDFFFFACFDFFFF7B
:4006C000ADFDFFFFAEFDFFFFC0000020FF010000CC130000CC0100206C020020019B00211A7042465A8009AA5A6048460C2200F01AFE4B4609AA9A6003AB4946180001936E
:40070000A8474B4699882623FF33994258D84B469B68002B5BD04B4601221B78081D637080B20B0AE37031802270A17000230025002800D163E651E602AB5D7F9B7F1B02FA
:400740001D43012F25D900250420092300213EE653AA9446009B42466344180009A900F0D9FDABB2009300250420002300212EE602AB5D7F9B7F02A91B028C461D431F2390
:40078000802263445200190053A800F0C3FD012FD9D87B02394A5B191B02954225D8591C53AAFF31D21A02E001339942DBD01878D55C8542F8D0002504200223002106E69F
:4007C0004B469B6809AA934203D0002BA3D10029A1D0002200233280013222700D326270A370E37004200021F8E5002504200A230021ECE5FF21224B1B681A68130A9BB218
:40080000114201D001339BB2009A78029446604480B20025984207D20023009301339B46042009330021D2E553A900F0D5F80028F2D10023009301339B460430002300218D
:40084000C5E5002217E60D4B984200D065E600210520FFF7B9FC434600211F1A0620FFF7B3FCFFB23F1AFBB2984656E602230022D0E6DB03DB0DDAB21B0ACBE6FF010000CD
:40088000CC01002070B50020FFF73CFD431E98410624164D40422B6804401868C02822D00023421E1178013ACB18DBB2BF2AF9D16A681278D31ADBB29A4211D0002000F050
:4008C00085FA0B4B1A68402A01D0002C03D000221A60FFF751FD80221A6000F079FA70BD0028EED1EAE70023E2E7C046CC010020C000002010B500F0E1FC03680C2B00D060
:40090000FEE7FEE7F8B5104E002E18D000200F4DA9682C686A68002905D00023E758043380C29942FAD1E9680023002903D0D05004339942FBD1013E1035002EE8D100F091
:40094000C3FC00F0B1FCFEE701000000281400000121134A70B51368124C8B431360124800220023114D04E00133A1500432302B08D00100032BF7D851590133A1500432C9
:40098000302BF6D1FFF74AFB094B1A68002A00D11A600123024A11680B43136070BDC0460000104000000020F508000000000000C0000020000000000230800803D001389F
:4009C000FDD1C046C046C0467047EFF3108072B6704780F310887047002330B5C5B0009301932D4B040098424DD800294BD0802204A8520000F08EFC284B9C4248D8284BEC
:400A00000293FF23274A02A903932748116027490860C0461168090F0F2903D01168090F0A2937D0126813400093009D002D2CD1FFF7CBFF0195009B002B18D11C4A24046E
:400A40000292029A02A91443164A02941160194C16490C60C0461168090F0F2903D01168090F0A2902D01368FF2213400093019B002B05D10193019B002B01D0019B0093FB
:400A8000FFF7A7FF01E004230093009845B030BD094BB5E70023C7E7FF030000FF010000B6D70000080010400400008004001040B6D8000005000080B6D700010121022020
:400AC00010B530240B4B1A688A431A601A6882431A60094A1068A043203C204310601068093CA0430143116080211A6809060A431A6010BD00F02E4000FF2E400121184BB5
:400B00000200186870B50840002A15D0012A12D1022407261968A143196012490D68B5432C4330250C600C68AC43103D2C430C6019680A431A6070BD02241A688A431A6091
:400B40001A68A2431A60074B2E341A68A243203C22431A601A68093CA24311431960EAE700F02E4000FF2E40F8B556464D4644465F46F0B40400FFF728FFE51E82462D2D34
:400B800031D8464B1B789C4236D8454B1B78DBB29946444B1B78DBB29846434B5F5D9B462F2F01D92A2C38D83F26404B1A681640B74203D21F600520FFF7FEFE3C4B3D4AFD
:400BC0009C4664442378DBB213604A463A4B1A6042463A4B1A603A4B187983001818FFF7EBFEB74232D85046FFF7F3FE3CBC90469946A246AB46F8BD324B1B789C422DD963
:400C0000314B1B789C4232D8304B1B78DBB299462F4B1B78DBB29846BFE71922234B05201A60FFF7C9FE224B224A9C4664442378DBB213604A46204B1A6042461F4B1A6041
:400C40001F4B187983001818FFF7B6FE5B465A5D164B05201A60FFF7AFFEC4E71D4B1B78DBB299461C4B1B78DBB2984695E71B4B1B789C4208D81A4B1B78DBB29946194BAF
:400C80001B78DBB2984688E7174B1B78DBB29946074B1B78DBB298467FE7C04640F3FF0F41F3FF0F42F3FF0FD41300002CFF0B404DF3FF0F28FF0B401CFF0B4020FF0B40F7
:400CC000D401002043F3FF0F46F3FF0F47F3FF0F48F3FF0F44F3FF0F45F3FF0F49F3FF0F4AF3FF0F4BF3FF0F4CF3FF0FF8B501230F4A040011680B43802113600D4A0E4B71
:400D000009021A600D4A13680B43136000280DD001250B4F0B4E3879FFF74EFE33681D4204D1013C002CF6D1102000E00020F8BD60F02E400220000078002E4010002E40A2
:400D4000D40100200C002E40024B8000C31818681960704740000020F8B503273D000E0004000540FFF731FE084BA4089C46A40064442168ED000B0031000635AF40A940CA
:400D8000BB4319432160FFF724FEF8BD00E400E01F2318401E3B8340014A13607047C04600E100E01F2318401E3B8340014A13607047C04680E100E01F2318401E3B8340AD
:400DC000014A13607047C04680E200E001BE7047034A044913681B041B0C0B43136070470CED00E00400FA05F8B5802507002D02A84214D904000B4EB068FFF7DDFD0A4B18
:400E00009C466444AC42F7D8084BFB18DB0BDB036744FF1AF0687843FFF7CEFDF8BD014EF8E7C046D40100200080FFFFFF7FFFFF10B5034B1B795843FFF7BEFD10BDC0460B
:400E4000D40100208021064A10B5136809060B4313600920FFF79CFF00F0A4F910BDC0460000244010B5054C2378002B03D100F023F901232370FFF7E5FF10BD7002002052
:400E800010B50920FFF78EFF00F0A2F9054A092013685B005B0813600022034B1A60FFF78BFF10BD00002440880F24400A4B0B4A1968136899420CD02E211368FF310133F1
:400EC0008B4204D00649C85C1360C0B270470023F8E70020FAE7C046BC0300208002002084020020054B1868054B1A681B68904201D22E30FF30C01A7047C046BC03002045
:400F00008002002010B51449144C22680B689A4217D0962322685B0001329A421AD00B689A42FCD002230E49C0B20B600D49885422600D4A11680B4202D111680B431360E4
:400F400010BD1F22094B1B681340082BE1D0084B1860F5E70022E2E7B40300207C020020800F2440C0030020880F2440080224404002244070B504004518002905D020784D
:400F80000134FFF7BFFFAC42F9D170BDF0B557464E464546374BE0B41B68002B00D09847354B1B685B072DD5344B2E259A46344B34499C46344B354E99462023FF35984662
:400FC000334C1F200BE03268934210D0524667461268D2B2FA540B60236818420FD00B680133AB42EFD1002332689342EED1534642461B684B461A7023681842EFD104220A
:40100000244B1A60244B1B689B0725D596235B00224823499C46234F234E244D1F2407E0FA5CD2B232600B602B682340082B10D002680B689A4214D00B6801336345EFD163
:401040000023FA5CD2B232600B602B682340082BEED10222164B1A601CBC90469946A246F0BD0221134A13688B4313600222104B1A60F1E774020020CC0F244040032440E4
:4010800084020020BC030020B80300208002002008032440C00F24408C0F24407C020020B4030020C00300204002244008022440800F2440880F244070B500240721042599
:4010C0001E4A1F4B09201A601E4B1F4A1C601F4B1A601F4B1F4A13601F4A11601F4A063914601F4A11601F4A13601F4B1C601F4B1D60FFF757FE03210920FFF72DFE1C496C
:401100000920FFF721FE1B4B1C601B4B1C601B4B1C601B4B1C601B4B1D601B4B1C601A681A4B1A801A4B1C601A4B1C601A4B1C701A4B1C601A4B1C6070BDC0460F000002EA
:40114000000024404000244001000A004800244007000080000324400403244010032440440024400002244004022440500024408D0F0000880E2440C80E2440480F244029
:40118000080F2440C80F2440880F244078020020BC03002080020020B80300207C020020B4030020064A074B11680B40902109040B431360044B1A88044B1A607047C046B7
:4011C00000000240FFFF0FFF78020020880F2440064A074B11680B401360064B1A68E423DB001340044A13807047C04600000240FFFF0FFF880F24407802002010B5FFF7EF
:4012000031FE10BD10B5FFF73BFE10BDF8B504000E0017000120002C27D0002925D09D00EB185D0005E00120013DFFF7DDFD002D1CD0FFF757FE0028F5D0FFF753FE05000B
:40124000FA208000FFF7F4FDFFF74CFE8542F4D1AE420DD83E80A519002E05D0FFF726FE20700134AC42F9D10020F8BD1020FCE72E00EFE770B501230C001500002805D0E3
:40128000002903D0FFF776FE00232C80180070BD0121044A084013688B43DBB2184310607047C0460004044010B562B60120FFF7EFFFFFF7D7FDFFF7E5FAFEE7014B186824
:4012C0007047C046480200200E4B70B500251E000D4CE41AA410A54204D0AB00F35898470135F8E700F08EF8084B00251E00084CE41AA410A54204D0AB00F358984701357E
:40130000F8E770BD10140000101400001014000018140000002310B59A4203D0CC5CC4540133F9E710BD03008218934202D019700133FAE770470000001500003F00000064
:40134000000000008A020000F801000008020000140200002A02000036020000420200004E0200005A02000066020000720200007E020000D6010000C2050000E60500008F
:401380002A0600007C050000700500002A06000050050000280500007C050000D4040000B20400002A0600002A0600002A0600002A0600002A0600002A0600002A060000F6
:4013C0002A0600002A060000A0040000AA11141A003C0101030405060708090A0B0C0E0F101112131415161718191B1C1D1E1F2021222325262728292A2B2E2F303132333B
:4014000034354300F8B5C046F8BC08BC9E4670478D01000051090000F8B5C046F8BC08BC9E4670476501000038140000C801002088000000A002000000000000381300007C
:401440003C13000001000000180000000000E02EC05D000000366E01000000000000000000000000000000000000000000000000000000000000000002140000000000001E
:401480000000000000000000000000000000000000000000000000000000000000000000000000000000000000000000000000000000000000000000E80100200000000023
:4014C00000000000000000000000000000000000000000000000000000000000000000000000000000000000000000000000000000000000000000000000000000000000EC
:4015000000000000000000000000000000000000000000000000000000000000000000000000000000000000000000000000000000000000000000000000000000000000AB
:40154000000000000000000000000000000000000000000000000000000000000000000000000000000000000000000000000000000000000000000000000000000000006B
:40158000000000000000000000000000000000000000000000000000000000000000000000000000000000000000000000000000000000000000000000000000000000002B
:403000000080002011300000690B0200690B020010B5024B83F308881DF0CCFD00800020F0B5474680B472B68E4C0022002526008D4B8E481A6000218032013520F03EFEE3
:403040000636032D0FD06B005B195B00E25AE31858880021000410430135B28820F02EFE0636032DEFD1210080221431804820F01CFEFF237F4E002537003C369846B446D5
:403080007D4818374346C2B29843002A0ED0013A6B00D2B2013555196C00634464441A7859781218023311709C42F8D1BE4201D001CFE7E7714A724B8A211A60714A724B25
:4030C00080241A603022714BC9031A60C022704BD2051A6070226F4B24031A6099236E4A1B0413606D4A6E4811606E4A6E4913606E4A11606E4A122113606E4A14606E4A52
:403100001360C0226D4B12061A606D4A6D4B1A606D4A6E4B1A600D226D4B1A606D4B2F32196003789343283A1343037016236A4A1078034313703722684B05201A60684A13
:40314000684B1A60C022684B1A60684BBD3A1A60674B62321A60674A674B1A609A22674B1A60674A674B1A609822674B1A60674B17321A60664A674B1A60FF22664B1A600A
:40318000664B5F3A1A600223654A1360654A1060654A2B3013603622644B1A60644B19601EF030F9634A644BBC211A60BF22634B12021A60624B634A89011A60624A11603D
:4031C000C021624A89001A60614A1160614A62491A60624A1160624A62491A608222624B12061A608022614BD2021A608122604B1A6041235F4A13605F4A136040225F4B76
:403200001A605F4B40321A605E4A5F4B1A6022000C600B681340FCD18021524A4902116080225A4912060A6003215948594C016059480460594C5A4804600C245948046021
:403240005948016059495A480A605A4901605A4801605A490B605A490B6813430B6004BC9046F0BD107702006CF02E4000300F4080300F409077020003000F40000300EE52
:4032800000000240000330030001024000020240000302400004024000500F4008500F4001700F4010500F400000203418500F4020500F4028500F4030500F4038500F4098
:4032C00010DD0000200120401D0D000060012040002001400420014000700F40000004408043DA00080004400C0004401800044000010440B2011B00080104400002044071
:403300003000180008020440180204400003044092040000080304400C0304401803044000040440080404401804044008050440300010400600008004010B4004040140D3
:403340000000014081FF00800403014041FF00800003014040FF0080081900000004014080FF008010020B4008010B4000010B402C010140200101401C0101401801014017
:40338000040101400000010F0C020B40000030403000304001400400800030401001240088003040C00030403000314000003A4000033A402000400040033A40000E3F407A
:4033C00080033A4010B5064C2378002B07D1054B002B02D0044800E000BF0123237010BDE80200200000000098410200084B10B5002B03D00749084800E000BF074803686B
:40340000002B00D110BD064B002BFBD09847F9E700000000EC020020984102007001002000000000034B044ADA62044A9A63044ADA63704700000020F5090200B10A020001
:40344000F50A020010B51BF0D5F8002801D01DF063FB0C4B1B78002B08D10B4B1B78002B04D11CF04FFA1FF097FF10BD1BF0E9FE02201FF0ABFA012108201EF097F804F009
:403480002FFDF0E73C0C0020580C0020002310B5024A1900012010F057FFFEE72502000010B519201EF070F8014B186010BDC046A00C002010B513F02FFE012805D11DF075
:4034C000ADFD1DF0BBFE1DF09BFD10BD0B490C4A10B50B681468002808D0EE20000603430B60D82109040B00234305E01B021B0A0B60230003490B40136010BD0000024082
:4035000008000440FFFF03FFF0B5002089B0FFF7DDFF80225A215200DC4820F0CFFB8022A521D200DA4820F0C9FB1FF0D3FE1EF0F9F8FFF7BFFF0FF0C5FA0FF0BBFA0028A5
:403540001BD162B61CF088F902201FF03FFA012108201EF02BF81DF061FD1DF0FBFC01201DF018FD8020C0051DF044FE1DF012FE1DF046FD04F0B4FC12E013F0CDFD002877
:403580000ED11DF04BFD1DF0E5FC01201DF002FD8020C0051DF02EFE1DF0FCFD1DF030FD02201FF0F3FE01201EF0C2FB01201EF0D5FBC8201EF066F800201FF0E7FEFFF773
:4035C0006FFF1BF001F81BF03BFC1CF0CFF81EF097FC13F0A1FD002802D116301EF0AEFC0021AC4AAC4812F037FF011E04D10300FB22012010F0A8FE1BF010FE040074203A
:4036000011F09AFA08230C2705000134019300948E33A24A482100F0D1FBA14CA14E23785A1C7B43F31822705D601DF089FA05940690012810D11BF0F1FD04009A4811F0B5
:403640007BFA0A23023401930094AF33974A0D21050017F0E9FE10E01BF0E0FD0400AA20800011F069FA0823023401930094B1338F4A0921050019F0B3FA059B05991B78E0
:403680005F435A1CF7190A707D6013F045FD844C070001280BD11BF0C1FD0500AB20800011F04AFA069B0600039302970BE01BF0B5FD0500AB20800011F03EFA069B06005E
:4036C0000393002302930A211423023501910095FF33784A300008F091FA22780C27531C23700C2353436F4AD3185E601BF096FD0400AC2011F020FA0A230500023401939A
:403700000094BE336C4A432104F066FE059B654C1B7805995A1C7B43E3180A705D601BF07DFD05006C2011F007FA042306000235019300957C33614A062108F00FF8059BE5
:4037400005991B785A1C7B43E3180A705E601BF065FD0500B820400011F0EEF9052106000135019100959023554A16F08FFA059B05991B7800255F435A1CE7190A707E606F
:4037800013F0CAFC431E984104231B1A07930A23059406931BF042FD0400DA20400011F0CBF9EEB23100023400940C240700069B444A6B43D218069B213102960193C9B231
:4037C000AF2301F02BFF364E013533785A1C63433270059AD318079A5F60EBB29A42D9D813F09AFC002817D11BF018FD0500A420400011F0A1F90423070002350193324AC3
:4038000092330095262100F023FB33785C435A1C059B32701C1967601CF01EF80121002010F078FD011E05D1B92203005200012010F08AFD00260124244D194B1A789642AB
:403840000CDA2B68002B06D01CF04AF8286803689B689847044001360C35EEE70C2353430599CB1800210B2A04DC5960197001320C33F8E7002C05D0FFF7D4FD62B61BF018
:40388000D4FCFEE7012009B0F0BDC046007B0020007C002028420200140D0020D6410200640C0020C80000206C080000E0410200EA410200F4410200FE41020008420200C9
:4038C00012420200A44102001C420200CC00002010B5054C200014F037FE044A044920001FF0B6FD10BDC04604030020740100203985010010B50400034B083303601AF046
:40390000B3FF200010BDC0467C42020010B50400FFF7F0FF20001FF0A2FD200010BD036810B5DB68FD2104009847031E04D133221121012010F008FD2368FE21DB68200095
:403940009847031E04D134221121012010F0FCFC2368F121DB6820009847031E04D135221121012010F0F0FC2368FF21DB6820009847031E04D136221121012010F0E4FCF8
:40398000802123684900DB6820009847031E04D137221121012010F0D7FC10BDF0B58A78437987B005000C009A4200D1E5E148780B7800021843F1380F2800D9DDE11FF04A
:4039C0007FFD7F01DC01DC01DC01DC01DC01DC01DC01DC01DC01DC01DC011000F5009501B0012E005E3613220021300020F066F92779D24BFF2F16D117222C001B786A44D1
:403A000005334634137039000123200011F03FFD2B683A001B692100280098475622031E00D0AAE1A5E11B789F4224D20C237B43C34A1321D3185B6830001A7B02921A6982
:403A4000920001929B68BF4A00933B002F00463714F089FB217913233200380011F017FD2B68FF221B693900280098476522031E00D082E17DE1BB4216DB2F001321463745
:403A800030001BF043FC217913233200380011F0FEFC2B68FF221B693900280098476B22031E00D069E164E15A1C974216DC2F001321463730001BF04FFC21791323320029
:403AC000380011F0E4FC2B68FF221B693900280098477122031E00D04FE14AE19A1C974216DC2F001321463730001BF0FBFB217913233200380011F0CAFC2B68FF221B698B
:403B00003900280098477722031E00D035E130E103339F4224DC80210022C9008A4813B210180078A52803D1013213B28A42F5D12F00864A13214637300014F014FB217902
:403B400013233200380011F0A2FC2B68FF221B693900280098478A22031E00D00DE108E1802100237A4A490010785A2806D1013398B203B2013A8842F6D10B002F00754A70
:403B800013214637300014F0EEFA217913233200380011F07CFC2B68FF221B693900280098479E22031E00D0E7E0E2E008790138042800D9E1E01FF079FC032769E04E000E
:403BC000A3794979E0791B020B4300041A000300207A134300061843A37A667AE17A1B02334309041A000B00217B1343090619431BF0DAFC2B6800215B6B28009847A9220A
:403C0000031E00D0B9E0B4E0A3794979E0791B020B4300041A000300207A134300061843A37A667AE17A1B02334309041A000B00217B1343090619431BF0B6FCFA222B686C
:403C400092001C6B002101232800A047AF22031E00D092E08DE0A3794979E0791B020B4300041A000300207A134300061843A37A657AE17A1B022B4309041A000B00217B72
:403C80001343090619431BF08FFC76E01BF09AFC03000B4301D1012019002C0046340090019100220421200011F007FC2B68FF221B69210028009847C022031E5DD158E05D
:403CC0000B794E1D012B03D10B21300013F0DCF90B21300013F0E8F92B68FF221B69210028009847D422031E47D142E00B794E1D30000C21012B02D113F0E6F901E013F09F
:403D0000F7F9011E03D10C2230001FF0D7FF2B68FF221B69210028009847E822031E2CD127E00B79002B17D00520085613F002FA002815D10023637112E0C046640C002029
:403D4000C800002046420200007C002055420200FF7B002069420200481D13F0FBF9E7E72B68FF221B69210028009847031E04D1FC221121012010F0E7FA07B0F0BDC04619
:403D800073B504000E1E18D105001BF01BFC46350090019132000221280011F08EFB2368FF221B69290020009847031E05D110221121FF32012010F0C7FA73BD7FB50400C9
:403DC000012608A820C8008802960190009520001AF01EFD2000084B182208332360002146301FF06BFF2000132200215E301FF065FF200004B070BD7C42020002207047ED
:403E000010B50024012906D8C9004018818D01341180026B1A80200010BD10B50368C9B2DB6B984710BD000010B50400024B036010F034FD200010BDC842020010B504009F
:403E4000FFF7F2FF20001FF00AFB200010BD0000F0B50400092685B00AA820C82700008802960190009520001AF0D2FC20003F4B093008332360FF3010F0C6F83C2010F044
:403E80005BFE972205003A490223520010F0F4FC384B394A2B602B002C3343CA43C32000126800211A604630256618221FF006FF2000A322002164301FF000FF200038301F
:403EC00003220021FF301FF0F9FE15220021280010F0EEFD2600B5220121206E10F0E8FD01230025FF367374B374FC370233BD612000B37620232930FF3375767577B5771E
:403F0000F5770C22E5542900FF301FF0D7FE23004622FE33DA8493235B00E5540E33E5543623FF33E5540133E5542823FF33E5541733F576E5520233E5520233E554442380
:403F4000FF33E554093BE5543C23FF33E5540133E55446232000FF337D62E55401333577F574E554023BE55405B0F0BD48450200EC420200C8420200DC4202000023F0B542
:403F800087B005AA138004AAD37004AA02900191D380994247D01E001C00F3B20393029B0122FF33DB7EF340134238D004AB2A4FDD1C2B00F2B20199380012F0E9FC00285F
:403FC0002DD02D78012D2AD104AB0633F2B20199380012F03DFF031E04D1204A1321280010F0B2F904ABDB881D4FBB4216D005AD2B00F2B20199184812F048FB00280ED0CC
:404000002A88BA420BD004ABDB88D3189BB22B801A1CA34200D2221C94B200E01C000136042EBAD107E08E22019B92001321012010F08AF90AE0002C08D00120084B404220
:404040009C4206D0FA208000604302E0E124A400F8E707B0F0BDC046140D00201E020000FFFF00000300FC339A6910B5531C0CD003681C6B00231900A047031E05D1B822F1
:4040800013219200012010F05FF910BDFA22036810B592001C6B01210023A047031E04D1024A1321012010F04FF910BDED020000010030B50E4D85B004006431280012F08F
:4040C00037F9280012F0B4FE00280FD00F236B4400930722074B2100206E10F0ADFC031E04D1054A1321012010F02EF905B030BD140D00201B3E00001203000070B505002A
:4041000004004635280011F014FB2368FF221B69290020009847031E04D1034A1321012010F012F970BDC046520300007FB59D230F255B00C35C04006D441222002B18D0A7
:40414000010000262A00643117482E7012F038FE1122B0420DD02300FC335B6A082B17D12300FF33197F1122002902D1103A1A7712320E4B00952100206E10F05DFC031E9E
:4041800011D1DE2213219200012010F0DDF80AE01122FF2BEDD12300FF33197F0029E8D01E770332E5E77FBD140D00201B3E0000036870B50B4A1D6B052100230400A84779
:4041C000031E04D1084A1321012010F0BDF89F235B00E05A3C211FF07DF94423FF33E05470BDC04660EA0000810300001FB5A0235B00C25A002A0BD0FA239B005A43036893
:4042000006211C6B0023A047031E12D1094A0CE00F236B4400930100074B0C22006E10F00BFC031E05D1E62292001321012010F08BF81FBD8D0300001B3E0000A123F0B582
:4042400044255B00C35C85B00400FF35002B1CD0435D174E0D22002B10D00368154A1F6B05210023B847031E04D1134A1321012010F06AF8635D0E4A013B6355A123002101
:404280005B00E154B24210D007E09F235B00C05A3C211FF01FF90E2260550F236B4400932100064B206E10F0C7FB05B0F0BDC046FFFF000060EA0000B50300001B3E00001C
:4042C00070B5050004004635280010F0C1FE2368FF221B69290020009847031E04D1034A1321012010F030F870BDC046D1030000FA22036810B592001C6B07210023A04778
:40430000031E04D1024A1321012010F01DF810BDD903000070B5060005000C00463600230A00012900D01A003000082110F075FE2B6831001B69FF2228009847061E06D0F9
:40434000013C63426341FF356B76012006E00300034A012013210FF0F7FF300070BDC046F603000070B50400FF34637F0500012B1BD0002B0AD0022B1DD10123A377637713
:40438000E37720230022FF33C2541BE0627E002A06D10123A37763772023FF33C25402E0A37702236377012303E00022A27702326277E37706E000230D4AE37713210120C4
:4043C0000FF0C2FFE37F002B10D0E37E002B0DD02B68C8221C6B022101232800A047031E04D1044A132101200FF0AEFF70BDC046230400002B040000036810B55B6B0221E6
:4044000004009847031E04D1044A132101200FF09BFF0023FF34E377637710BD3504000070B50D000400FFF7E7FF29002000FFF771FF70BD08784006C00F704770B5040074
:40444000481E052867D81FF031F8031B323946560125D378AB4266D1A2235B00E5542368C8221E6B082100232000B047031E23D18B222800D20013210FF066FF053552E0FE
:40448000D6780325012E4ED1A22302225B00E2542368C6321D6B082100232000A847031E0AD1224A132130000FF04EFF04E04623FF33E35C002B35D1062534E02300FF33BD
:4044C000DA7E002A2ED0DB7C0425002B2BD12000FFF748FF27E02300FF33DA7F002A21D00022DA77236802215B6B20009847031E18D10F4A12E02300FF33DA7F002A11D074
:404500000022DA77236802215B6B20009847031E08D1084A02E092220023D200132101200FF012FF044D280070BDC04665040000830400008B040000FFFF0000F8B5282536
:40454000FF35435D04000E008B4201D1002A31D03C23FF33E35C002B13D02700463732000021380010F004FD2368FF221B69390020009847031E04D10F4A132101200FF072
:40458000E3FE9E235B00E35C002B12D0270046373100380010F050FD2368FF221B69390020009847031E04D1044A132101200FF0CBFE6655F8BDC046C3040000C904000085
:4045C0007FB50400082900D991E008001EF06EFF9305074962A48284860009228CE025004635280011F08AF82368FF221B69290020009847031E05D1DA2213215200012037
:404600000FF0A2FE2600FF36B37F002B10D0737E002B0AD12022FF32A35C002B05D10121A1541A3AFF3A073104E00023022200E003220821280010F0F0FC2368FF221B6960
:40464000290020009847031E05D1E3221321520001200FF079FE012320007376FFF702FD5CE0002220001100FFF768FF25009A2300215B004635E154280011F086F82368AB
:40468000FF221B69290020009847031E46D1E92252003CE0250046350121280011F075F82368FF221B69290020009847031E05D1D8221321FF3201200FF046FE9B235B00F9
:4046C000E25C002A2AD000220121E2542000FFF721FE23E00C220FE015220DE0A2235B00E25C012A08D0022A18D1013204E0FC220023FF320BE005220F236B4400932100BF
:40470000074B206E10F098F9031E07D1054A132101200FF019FE01E00F22EDE77FBDC0461B3E000007020000F0B50600040000235D4D85B0643602AA31002800D37111F036
:40474000F7FD31002000FFF719FC2300FC3398613100280012F0B4F82300FF33D87420002200012735308D322933FF301178002901D01F7001E01970597003331B32834250
:40478000F4D122002532FF323100280012F0F0F8031E04D1454A132101200FF0D5FD9B2300225B00E25402ABDA1D3100280012F0E8F8002851D002ABD9793C23FF33E25C35
:4047C00001938A4214D0002912D1270046370A00380010F0CDFB2368FF221B69390020009847031E04D1324A132101200FF0ACFD02ABDB79019AA354002B11D13D33FF33A2
:40480000E35C002B0CD1236803215B6B20009847031E05D19E221321920001200FF094FD019BE35C002B02D13D33FF33E35C93225200A354002B10D0002220001100FFF783
:404840007DFE236803215B6B20009847031E04D1184A132101200FF077FD22003F32FF323100280012F072F8031E04D1124A132101200FF069FD9F235B00E05A3C211EF0D2
:4048800029FE44232200FF334132E054FF323100280012F064F8031E04D1084A132101200FF052FD05B0F0BD140D0020630200006E0200008202000086020000890200008D
:4048C000036810B5DB682D2104009847031E04D16322132101200FF037FD23680021DB6820009847031E04D16422132101200FF02BFD23682721DB6820009847031E04D120
:404900006522132101200FF01FFD23685A21DB6820009847031E04D16622132101200FF013FD23685C21DB6820009847031E04D16722132101200FF007FD23682A21DB681C
:4049400020009847031E04D16822132101200FF0FBFC2368B221DB6820009847031E04D16A22132101200FF0EFFC0A212368FF31DB6820009847031E04D16B22132101200C
:404980000FF0E2FC0C212368FF31DB6820009847031E04D16C22132101200FF0D5FC2368AB21DB6820009847031E04D16D22132101200FF0C9FC2368AA21DB682000984778
:4049C000031E04D16E22132101200FF0BDFC832123684900DB6820009847031E04D16F22132101200FF0B0FC06212368FF31DB6820009847031E04D17022132101200FF0E3
:404A0000A3FC23682C21DB6820009847031E04D17122132101200FF097FC2000FFF784FE10BD0300020029333532FF33FF321978002902D05978012904D003339342F6D190
:404A4000012200E000223623FF33C35C59424B415B421A4010007047362370B50600FF33C35CFF360400757E002B04D10125FFF7D8FF6840C5B20934FF3420000FF0CEFA18
:404A8000B27C717C2B0020000FF0CDFA70BD0000F8B503250B7904006B43C3181A002932FF3212780E00002A61D04A79002A0FD12A33FF331E78012E59D11A7093235B0038
:404AC000C35C002B53D0FFF7ACFF002834D14EE09A277F00C35D002B0CD0036829005B6B9847031E04D1224A132101200FF02CFC0023E3552823FF33E55C002D13D12A007B
:404B000001212000FFF71AFDFA22236852001F6B04212B002000B847031E04D1154A132101200FF011FC032332795343E41801232A34FF3423701AE09A235B00E35C002B57
:404B400015D12200FE32D18CFA2292004A43216820000F6B2900B847031E04D1064A132130000FF0F1FB9A2301225B00E254F8BDF6040000FE040000E4040000F8B50600C8
:404B80000400463630000D0010F0CBFD2368FF221B69310020009847031E04D1334A132101200FF0D1FB93235B00E25C3623FF33002A59D0E25CAA4257D0E554002D30D099
:404BC000013BE25C1D00002A0DD0236803215B6B20009847031E04D1254A132101200FF0B3FB002363552823FF33E65C002E3CD101250F33E554320029002000FFF79EFCBB
:404C0000FA22236852001F6B042133002000B847031E2AD1CD221321920028000FF094FB23E02000FFF7FDFE00281ED09A235B00E35C002B19D12300FE33DA8CFA239B00EB
:404C40005A43236803211E6B20002B00B047002805D12B00074A132101300FF075FB9A2301225B00E25400E0E554F8BD1E0300002B0300003E03000010B5030012294AD8DB
:404C800008001EF013FC240E0A1D1618121F28324E302C44373B404E4E001800FFF708FA3FE01800FFF7F2F93BE01800FFF7DAF937E0012100E000211800FFF7B1FB30E059
:404CC000012100E000211800FFF758FF29E01800FFF714FA25E01800FFF728FA21E01800FFF766FA1DE0012100E000211800FFF7E7FA16E01800FFF779FA12E0A122012106
:404D0000520099540DE01800FFF798FA09E01800FFF7EEFA05E00023034A132101200FF013FB012010BDC046D20200009A2370B55B00C25C04001D00002A0DD00368032137
:404D40005B6B9847031E04D11F4A132101200FF0FBFA0023635534E093235B00C35C002B2FD02823FF33C55C002D2AD12A000121FFF7E4FBFA22236852001E6B04212B00E4
:404D80002000B047031E04D1104A132101200FF0DBFA2300FE33DA8CFA239B005A43236803211D6B20000023A847031E05D1AE221321D20001200FF0C7FA9A2301225B0002
:404DC000E254002070BDC046630500006D0500004B7910B50200012B17D188790E3318400138062811D81EF061FB06040A0E0E0E0C0001200AE01000FFF798FF06E0032062
:404E000004E0062002E0042000E0014810BDC046FFFF0000A32300225B0010B50400C25410008A0707D595225200A25C1030002A01D00122E2544B070AD5202318432E230E
:404E4000FF33E35C002B03D0A32301225B00E2540B0709D540231843F033E35C002B03D0A32301225B00E254CB060AD5802318433423FF33E35C002B03D0A32301225B0009
:404E8000E25410BD10B50400FF34FFF76BFA637F0420012B09D00130022B06D004380023024A13210FF050FA002010BDAD050000F7B53825FF351700425D0E001900040074
:404EC0000192FFF7A7FF019B1843C0B26055012F15D1022E06D1A3235B00E35C002B03D1032619E0032E02D10643665516E0012E01D1013610E0132E10D10C3E0CE0002F1A
:404F000009D0022F05D12000FFF7BCFF635D184303E0032F02D1062630436055F7BD00000300F7B53833FF330400032218000D003A26002101931EF0C1FE0023284FFF366A
:404F4000A355380011F022FB0123002805D1380011F028FB002801D00223A3556B782A781B021343272B1AD002D8002B17D035E05A2B0DD05C2B31D12B79042B02D16B79A5
:404F8000A97903E0002B11D16B79E979012202E0AB796A79E9792000FFF78AFF06E0EB79002B03D038230122FF33E2543823FF33E35C002B12D0250046350199280010F023
:404FC00060FB2368FF221B69290020009847031E04D1044A132101200FF0B6F9F7BDC046140D002055050000F0B58A78437985B004000D009A4200D1A7E10600FF36F37CDA
:40500000002B01D0FFF78CFF6B782A781B0213435C2B00D190E019D82A2B7AD006D8002B00D181E0272B00D17EE08EE12D2B30D05A2B00D19AE02C2B00D086E123002A79FC
:40504000FC335A622000FFF771F87EE10622FF32934200D15CE109D8AB2B00D1E6E0B22B00D1B9E0AA2B00D06FE106E10A22FF32934200D1C5E00C22FF32934200D1C9E064
:40508000053A934200D060E146232A79FF33E2545BE1236800215B6B20009847031E04D18C22132101200FF04FF92000FFF73CFB9E235B00E35C002B11D1250046352800ED
:4050C00010F0CCF82368FF221B69290020009847031E04D19522132101200FF035F99D235B00E35C002B00D02BE125004635280010F0BFF82368FF221B692900200098472D
:40510000031E00D01DE19B22132101200FF01CF917E12B79002B00D115E10B20012B00D1FDE00023AD2207E1EB79002B00D10CE12000FFF7FBFDEFE06E1D31002000FFF7F1
:4051400079F9002800D100E101206B7903400AD02000FFF781FC200009302A793100FF300FF076F832E0D2221321E7E0AE1D31002000FFF75FF9002800D1E6E02000FFF725
:405180006BFC6B782878A9781B02034309041A000B00E9781343090619436B792F79AA791B023B43120418001300EA79034312061A436B7A2F7A1B023B431800AB7A1B04FF
:4051C000034320000930FF300EF0C5FF010032002000FFF733F99FE06B7AF3762B7A002B00D1B2E0250064352900594811F0A0F829002000FEF7C2FE2300FC33986102201E
:405200008DE02B79032B00D99FE029002000FFF73FFC9AE02A79032A00D996E003235343E41869792B34FF3421708EE06B792A791B021343892B58D0882B00D085E0AB79B7
:40524000002B00D081E0EA793C251300FF3B591E8B419E2149006354FF35FF2A34D1635D002B3CD123683A395B6BFF3920009847031E2ED12022FF3221E06B792A791B0232
:405280001343052B2FD1AB79002B5ED1EA793C251300FF3B591E8B419E2149006354FF35FF2A11D1635D002B19D123683A395B6BFF3920009847031E0BD19D225200132186
:4052C00001200FF041F804E0012220001100FFF735F9635D002B02D13D33FF33E35C93225200A35431E0062B2FD1AB79002B2CD1E879FF3803005A1E93419D225200A15CD9
:40530000DBB2994221D041424841A354113006E029002000FFF75CFD0E4B984215D00F236B44009302000C4B2100206E0FF084FB031E0AD17A22FF32132101200FF004F827
:4053400003E00820EBE70A20E9E705B0F0BDC046140D0020FFFF00001B3E00000B4B10B5083304000360006E002802D003685B6898472000002309302366FF300EF03CFEB8
:40538000200019F071FA200010BDC0464845020010B50400FFF7E2FF20001EF060F8200010BD0120704710B504000020814204D1A18D01301180226B1A8010BD10B5036857
:4053C000C9B2DB6B984710BD036870B5DB682D2104009847031E04D1A722072101200EF0B3FF23680021DB6820009847031E04D1A822072101200EF0A7FF23682721DB68D3
:4054000020009847031E04D1A922072101200EF09BFF23680A21DB6820009847031E04D1AA22072101200EF08FFF23685A21DB6820009847031E04D1AB22072101200EF0EA
:4054400083FF23685C21DB6820009847031E04D1AC22072101200EF077FF23683D21DB6820009847031E04D1AD22072101200EF06BFF23682A21DB6820009847031E04D130
:40548000AE22072101200EF05FFF23682921DB6820009847031E04D1AF22072101200EF053FF23682621DB6820009847031E04D1B022072101200EF047FF2368D221DB68D6
:4054C00020009847031E04D1B122072101200EF03BFF2368D321DB6820009847031E04D1B222072101200EF02FFF2368AB21DB6820009847031E04D1B322072101200EF0B8
:4055000023FF23688221DB6820009847031E04D1B422072101200EF017FF852123684900DB6820009847031E04D1B522072101200EF00AFF842123684900DB68200098471C
:40554000031E04D1B622072101200EF0FDFE06212368FF31DB6820009847031E04D1B722072101200EF0F0FE8C2123684900DB6820009847031E04D1B822072101200EF019
:40558000E3FE2368AE21DB6820009847031E04D1B922072101200EF0D7FE23683321DB6820009847031E04D1BA22072101200EF0CBFEFA22236892001D6B04210023200055
:4055C000A847031E04D1BB22072101200EF0BCFE2368074A1D6B0E2100232000A847031E04D1BC22072101200EF0AEFE70BDC046B80B000010B50400024B03600FF04EF9A7
:40560000200010BD9845020010B50400FFF7F2FF20001DF024FF200010BD0000F0B50400112785B00AA820C80CAE00883678029701900095200019F0EBF820006F4B8D30AF
:4056400008332360FF300EF0DFFC34200FF074FA070001236A4A6B4900250FF00DF92000694B29003B60694BFD623B63A766182246301EF023FB20002900A3226C301EF0FC
:405680001DFB20004D3029000422FF301EF016FB2000963029000322FF301EF00FFB2000993029001622FF301EF008FB2000290008225E301EF002FB2900362238000FF0CF
:4056C000F7F9A2235B00E55423009022FF331D745D749D74DD745D751D755200033BDD611D62A554222221009720FF32A554233AFE31FF3A40008A84CD8425543020FF304A
:405700002554013025543220FF3025543620FF30DD6225540130255446302252023025544C3825543420FF302654CF38C8859C21490062543821FF32FF3162543A21FF31CB
:4057400062543632A5540632A5543C22FF32A5540132A5543E22FF32A5544022FF32A5545D644623FF33E5540133E5544823FF33E5544A23FF33E5540133E5544C23FF3359
:40578000E554033BE5540833E5545223FF33E5540133E5543F3A2633E554FF3A3A3BE25420007A235530FF33E55423322900FF301EF084FACA235B00E5541A3BE55406335B
:4057C000E5520233E5540233E5520233E5542833E554B023FF33E5540133E554B223FA22FF33E55412010133E25288232000FF33E5540133E55405B0F0BDC046AC45020016
:40580000DD070000F445020098450200C60700003023FF33C05C704737B56B469D1D002304002B80994207D02B001B4810F02EFF031E08D1194A02E0B9220B0092000721D0
:4058400001200EF081FD2888154B98421DD0154B984208D0144B984209D000280AD0FA239B00584307E0A52301225B0010E00120404200E00D484A220023FF32A35401325C
:40588000A3544C22FF32A35405E04A230122FF33FA20E25480003EBD140D0020DF020000FDFF0000FEFF0000FFFF0000983A0000030010B5FF33D97C00290ED1033BDA6926
:4058C000531C0AD003681C6B0B00A047031E04D1024A072101200EF037FD10BD43050000036810B55B6B00219847031E04D1034A072101200EF028FD10BDC0464E050000DE
:405900003423010010B50400FF33C25C6C31FFF783FF2300FC33D861421C07D03222FF32A25C002A02D0024A8018D86110BDC04600DD6D000300FC331A6A70B50400531C1A
:405940000BD0036801211D6B0023A847031E04D1044A072101200EF0F7FCD82301225B00E25470BD63050000036810B55B6B012104009847031E04D1044A072101200EF0DD
:40598000E3FCD82300225B00E25410BD6B050000FA22036810B592001C6B03210023A047031E04D1024A072101200EF0CDFC10BD730500001FB597235B00C35C0C22002B92
:4059C0000FD002000400FE32D18CFC34D38D002900D1918CE46AC918E20FCB17A1425A410B320F236B4400930100064B806E0FF023F8031E04D1044A072101200EF0A4FCD8
:405A00001FBDC046BD530000F20500001FB597235B00C35C0C22002B09D00300FE339C8C023BD96AE317CA0F8C425A410B320F236B4400930100064B92B2806E0EF0FCFFFD
:405A4000031E04D1034A072101200EF07DFC1FBDBD53000006060000342213B50B0001243621FF32825CFF310194415C00910100054812F0B1FD031E04D1044A07212000FA
:405A80000EF062FC13BDC04604030020660600000300FC33DB6A0A4AFE3010B50400934205DC828C99B28A4208DDC28407E00023044A072101200EF047FCA38CE38410BD14
:405AC000FEFF00007C0600009B2270B55200835C002B0DD10124845402680521156B054AA847031E04D1044A072120000EF02CFC70BDC046C02709008C0600009B2310B5D6
:405B00005B00C25C002A0CD00022C254036805215B6B9847031E04D1024A072101200EF013FC10BD95060000FA22036810B592001C6B02210123A047031E04D1024A07217B
:405B400001200EF001FC10BDA2060000036810B55B6B02219847031E04D1034A072101200EF0F2FB10BDC046A706000070B504001B4811F05DF9002830D0FA222368920061
:405B80001D6B082100232000A847031E04D1154A072101200EF0D8FBA92301255B00E554023BE25C002A19D00022E2545223FF33E254260034234636FF33E15C30000FF0B3
:405BC000A5FD2368FF221B69310020009847031E04D1054A072128000EF0B6FB70BDC046140D0020D1060000DB060000A923002270B55B00C254023BC15C0400914218D096
:405C0000C2545223FF33C254050034234635FF33C15C28000FF07AFD2368FF221B69290020009847031E04D1024A072101200EF08BFB70BDEB06000070B5294D0400280081
:405C400011F0F6F800284AD0280010F0BFFD00281BD03423FF33E35C002B16D15222FF32A354B222FF32A25C2168002A2DD11300FA220D6BD2000D212000A847031E04D126
:405C8000184A072101200EF05FFBA8235B00E25C002A24D00022E2545223FF33E254250034234635FF33E15C28000FF02FFD2368FF221B69290020009847031E0FD10A4AC4
:405CC000072101200EF040FB09E0FA220D6B92000D212000A847031ED7D1044AD1E770BD140D0020FD0600000C0700000107000010B50400064811F059F9002803D02000F6
:405D0000FFF734FF02E02000FFF796FF10BDC046140D0020F0B506000400B94D6C3689B03100280010F004FB34272300FF373533FF33E25D3100280010F02AFE0397031EE8
:405D400005D1C7220721920001200EF0FDFA21009931FF31280010F007FC031E04D1A94A072101200EF0F0FA2300FE3304936423049A3100D3852800270010F059FDFF37C0
:405D8000039BF874E25C3100280010F05FFD039B3874E25C3100280010F06BFD039B7874E25C3100280010F077FD3100B874280010F094FD012178754140934812F072FC17
:405DC000039B3100E25C2000FFF726FD2300FC33D8610593039B3100E25C23002F33FF33280010F0D1FC002802D197235B00E054039B3100E25C23002333FF33280010F05D
:405E000099FC002803D10123049A5B4293840E27049B04AABF189B8C7C4A934224D19A235B00E35C0493012B24D16A464623127CFF33E25400233B70039B3100E25C28002A
:405E40003B0011F04FF8031E05D1D1220721920004980EF079FA3B78642B0BD86C4AD25CA3235B00E25405E046220023FF32A3540132A3543100280010F0C8FD99235B0097
:405E8000E05400233B80039B3100E25C28003B0010F0DEFF031E04D15E4A072101200EF053FA3A88594B9A4202D101235B4202E0FA239B005343059A07AF136200233B70B3
:405EC000039B3100E25C28003B0010F0E7FF031E04D1514A072101200EF036FA3B78642B04D84B4AD25C90235B00E2540D2704ABFF1800233A00310028003B7011F014F8B7
:405F0000031E04D1454A072101200EF01DFA08233A7831001340A2225200A35422004932FF32280011F008F8031E05D1DB220721920001200EF008FA2100B331FF312800ED
:405F400011F046F82800A92711F030F87F0000281DD09A235B00E35C002B06D0E35D002B29D12000FFF702FE25E0236808215B6B20009847031E05D1DF2207219200012009
:405F80000EF0E2F9A92300225B00E25413E0236808215B6B20009847031E04D1204A072101200EF0D1F900232000E355FFF744FE28200EF07BFB21002300039A8331FF3178
:405FC0008133A25C0091FF333100280010F094FC21002300039A8731FF318533A25C0091FF333100280010F09CFC9C23FF225B00E2542100044812F037FB09B0F0BDC04692
:40600000140D00201F03000004030020FFFF0000AE55020056030000610300006903000083030000C02310B55B00C25A094B9A420FD0FA239B005A4303680A211C6B002361
:40604000A047031E05D1E4220721D20001200EF07BF910BDFFFF0000036810B55B6B0A219847031E04D1034A072101200EF06CF910BDC04626070000C22310B55B00C25AD4
:40608000094B9A420FD0FA239B005A4303680B211C6B0023A047031E05D1E7220721D20001200EF051F910BDFFFF0000036810B55B6B0B219847031E04D1034A0721012099
:4060C0000EF042F910BDC0463E070000342270B5FF32825C04000B00002A13D10500463502320A2128000FF0DBF82368FF221B69290020009847031E04D1034A07210120EB
:406100000EF022F9012070BDB1070000A72370B55B00C25A21491300143B9BB204008B4217D80300FE339A84050034234635FF33C15C28000FF0EAFA2368FF221B69290025
:4061400020009847031E04D1154A072101200EF0FBF8A6235B00E25A124B9A4219D0FA222368D2001D6B082100232000A847031E05D1D7220721D20001200EF0E5F8A62304
:406180005B00E15A2000FFF7A1FF52230022FF33E254A82301225B00E25470BDEAFF0000B2060000FFFF0000F0B5002589B002ABDD805D8100220023040003AE04AF06A803
:4061C00035803D800692079319F00EFAA8422AD02100069B5531FF3105A805931DF060FCA84270D028200EF061FA2300FC33196E0195172902D04D1CEBB20193334D02ABCD
:40620000C9B206333200280010F0BAFE002854D00A2302AA9B1801993A00280010F0B0FE002804D149E028200EF090FA4BE03588274A6B1E9BB293423BD83888431E9BB29B
:40624000934236D83B21401B1DF0CEF92300FC33DB6D43435919A6235B00E25A89B231808A4203D0E1522000FFF730FF02ABDA88A7235B00E15A914225D0E25213001549DF
:40628000143B9BB28B421ED82300FE339A84250034234635FF33E15C28000FF037FA2368FF221B69290020009847031E0BD10A4A05E0F3220023D20001E00023074A07213A
:4062C00001200EF041F809B0F0BDC046140D0020FDFF0000EAFF0000910700009E070000B02370B53C26FF33C15C0400FF36002914D1835D002B11D00500463528000FF0F4
:4063000055FA2368FF221B69290020009847031E04D1054A072101200EF016F848220023FF32A355A35470BD0B090000BC2300225B0010B5C254036809215B6B9847031E9C
:4063400004D1034A072101200DF0FEFF10BDC046140900004A23FF33C35C002B02D14B33FF33C35C1800704710B534230978FF330A00C35C040001331A4101231A4018004D
:40638000002A09D110004B0606D59A235B00E05C033843425841C0B210BD342300B5FF33C35C0020032B0CD818001DF07FF802040709C90600E08906C80F02E04906FBE748
:4063C000C80900BD342370B5FF33C25C0400002A6FD11F33C35C002B10D0036808211D6B1300344AA847031E04D1334A072101200DF0AAFF2000FFF7D7FE5AE0A82252001A
:40640000825C002A33D09A225200825C002A2ED0A6225200815A294A914228D05225FF35415D026807290FD8166BFA220821D200B047031E04D1224A072101200DF084FF86
:40644000635D013363550BE0156B0821194AA847031E05D1A7220721120101200DF074FFA6235B00E15A2000FFF730FE21E0154810F0ACF900281CD05225FF35635D072BA7
:4064800017D8FA222368D2001E6B082100232000B047031E04D10C4A072101200DF054FFD9235B00E15A2000FFF710FE635D0133635570BD307500005E0A0000FFFF000009
:4064C0006B0A0000140D0020790A0000BC2370B55B00C35C0400002B1FD03422FF32825C002A1AD105004635012B01D1130003E0022B05D1130001220A2128000EF0D0FE81
:406500002368FF221B69290020009847031E04D1024A072101200DF017FF70BD950A0000342370B5FF33C35C0400002B2FD15133FF33C25C1D00002A0CD0036808215B6B4C
:406540009847031E04D1124A072101200DF0FCFE00236355A9235B00E35C002B02D02000FFF744FBBC2301255B00E5542000FFF7ADFF236846221E6B09212B002000B047D4
:40658000031E04D1034A072128000DF0DDFE70BD9F0A0000AA0A0000342370B5FF33C35C0400002B2FD15133FF33C25C1D00002A0CD0036808215B6B9847031E04D1124A68
:4065C000072101200DF0C0FE00236355A9235B00E35C002B02D02000FFF708FBBC2302225B00E2542000FFF771FF236846221D6B092101232000A847031E04D1034A0721E3
:4066000001200DF0A1FE70BDB40A0000BF0A00003C2370B5FF33C25C0400002A24D00022C254036806215B6B9847031E04D1124A072101200DF088FEA4235B00E35C002BDA
:4066400012D025004635012128000EF0D9FF2368FF221B69290020009847031E04D1074A072101200DF070FEBE235B00E25A042A01D1053AE25270BDC90A0000CE0A000062
:40668000CA2370B55B00C35C04000E008B4218D0050034234635FF33C15C320028000FF06BF82368FF221B69290020009847031E04D1044A072101200DF046FECA235B0037
:4066C000E65470BD2F0B00000300FC33DA6970B50400531C0BD003681D6B00231900A847031E04D1044A072101200DF02DFE01212000FFF7C5FF70BD1A050000030070B5CE
:40670000FF33D97C0400002909D003680F4A1D6B00231900A847031E12D10D4A0CE00300FC33DA69531C0BD003681D6B0B00A847031E05D1A622D200072101200DF004FE89
:4067400000212000FFF79CFF70BDC046102700002A0500004C2310B5FF33C35C002B18D10300FF331B7C002B14D13133FF33C35C002B0FD1B133FF33C35C002B0AD13023EB
:40678000FF33C35C002B02D0FFF79EFF01E0FFF7B5FF0149080010BDFFFF000010B50021FFF7D8FF10BD10B52521FFF7D3FF10BD70B54B790400012B48D10F2589790D407B
:4067C000012D02D1FFF7EFFF49E0FFF7E6FD002844D0A81E052841D81CF068FE0305071F323602203BE0032039E048220123FF32A354B022FF32A3544C23FF33E35C002B2E
:406800002CD13533FF33E35C012B27D14023FF33E35C0420002B22D020E048230222FF33E254B023013AFF33E2544C23FF33E35C002B13D13533FF33E35C93420ED1E5E794
:406840002000FFF7E5FE09E0072008E0022B05D18A790D3313402620012B00D0004870BDFFFF0000A2225200825C03000A20002A09D0BD225200995C3422FF32985C0029EB
:4068800001D00430C0B270477FB50400102900D95DE108001CF014FE13009C0038005E016E009600A800030107010B0111006F010F01110173003801520122224BE19F231E
:4068C00001225B00E2540E3BE35C002B0CD12200FC32126A002A07D09A225200A15C1E3AFF3A012900D136E13622FF32A25C002A05D0002B03D000212000FFF7ADF8200059
:40690000FFF7F6F9062226E12300E121FC335A6C0901551C5D6428001CF062FE002900D02DE1E121280009011CF0D4FDC5B22900934810F069FA031E04D1924A0721012048
:406940000DF002FD26004636290030000EF045FD2368FF221B69310020009847031E04D1894A072101200DF0EFFC632D00D806E11A22F0E003212000FFF76EF8FFE0250087
:406980004635022128000EF018FD2368FF221B69290020009847031E04D17C4A072101200DF0D2FC002128000EF00FFD2368FF221B69290020009847031E00D0DFE08F22CA
:4069C0009200D3E000212000FFF75AFE0D22C2E0D82300215B00E1542000FFF751FE2000FFF786F91822B6E02500463528000EF085FE2368FF221B69290020009847031EBA
:406A000004D1634A072101200DF09EFC2000FFF729FF9D2330265B00E35C0100FF360322002B18D04623FF33E35C002B07D13A23FF33E35C002B02D0A35D002B09D19E222B
:406A40005200A35C002B04D10120A054373AFF3A01E00023022228000EF0DFFA2368FF221B69290020009847031E04D1494A072101200DF069FC23000125FC33DA69A5559E
:406A8000531C00D17BE0236820001E6B00231900B047031E73D1404A0721280068E04C230022FF3348E02000FFF78CFC67E02000FFF70CFD63E02C224DE09A235B00E35C49
:406AC000002B5CD03423FF33E55C002D57D17F33E15A2000FFF7FAFAB2225223FF32A15CFF33002903D10131A154B23A24E0FA22E5542368D2001E6B08212B002000B047C6
:406B0000031E3CD1254A31E0BF235B00E35C022B0FD10D336B4400932622214B2100A06E0DF08AFF031E04D11E4A072101200DF00BFCBF2300225B00E25420E0C4235B00B1
:406B4000E35C012B19D00322022B04D017E00023154A0BE00A220F236B4400932100104BA06E0DF069FF031E09D1104A072101200DF0EAFB03E02322EDE70222EBE77FBDFA
:406B8000140D00201B0200001E02000039020000550200006B020000720200009B020000BD530000AD020000C5020000D102000070B50400FFF756FE05002000FFF790FBD5
:406BC0009A235B00E35C012B1FD10A2D04D13423FF33E35C002B18D1290025004635FE23052228000EF019FA2368FF221B69290020009847031E04D1044A072101200DF00E
:406C0000A3FB30230122FF33E25470BD59070000F7B50400009101922500FFF723FE30279A23009A01005B004635FF37012A53D1E05C0138032800D994E01CF037FC024AB9
:406C40004A693E23FF33E35C002B00D08AE04623FF33E35C002B03D0A3235B00E35C4FE098235B00E35C002B09D14023FF33E35C002B04D13223FF33E35C002B03D0382376
:406C8000FE22FF33E25404290CD838269C22FF365200A35DA25C9A4202D1019A002A61D005220EE00A295DD138269C22FF365200A35DA25C9A4202D1019A002A52D0052221
:406CC0000A2128000EF0A9F99C23A25D5B00E2541EE00023012214E09C2200205200A054E05C013803283DD81CF0E0FB020F0F123E23FF33E35C002B02D00023E35531E0ED
:406D0000052228000EF089F902E000231A00F8E72368FF221B69290020009847061E06D0009B0126013B5A425341E35505E033000E4A072101200DF007FB3423FF33E15C50
:406D4000E25D28000EF029FD2368FF221B69290020009847031E07D1054A072101200DF0F3FA01E00026E8E73000FEBD2F0800003508000070B50400FFF7B2FA0122200072
:406D80001100FFF745FFA8235B00E25C002A17D000222500E25434234635FF33E15C28000EF0B4FC2368FF221B69290020009847031E05D1B4220721D20001200DF0C4FA84
:406DC00070BD00003C2370B5FF33C35C0400002B0AD0036806215B6B9847031E04D1164A072101200DF0B0FA2000FFF779FA002220001100FFF70CFF22230022FF33E2545F
:406E00002F33E15C914215D0E254250034234635FF33E15C28000EF079FC2368FF221B69290020009847031E04D1044A072101200DF08AFA70BDC046A9050000B7050000C1
:406E40003C2370B5FF33C35C0400002B0BD0036806215B6B9847031E05D1B8220721D20001200DF071FA2000FFF73AFA012200212000FFF7CDFEA8235B00E25C002A16D0C5
:406E800000222500E25434234635FF33E15C28000EF03CFC2368FF221B69290020009847031E04D1024A072101200DF04DFA70BDCD050000012210B51100FFF7A9FE10BD2D
:406EC0000300F0B52C4D6C3387B004001900280003930FF02DFA3023FF33E35C002B04D0002220001100FFF793FE0E2702AB0F26FF18002302AAB6183B7033703A0003990E
:406F0000330028000FF026FC1C490A0000280BD0387898277F00E35D834205D003005A1E93410F22E055D21A8A4213D19A235B00E35C012B1CD128000FF058FF002817D04D
:406F40004027FF37E35D002B12D028000FF04EFF1A22E0550A4B00962100A06E0DF06CFD031E07D1074A072101200DF0EDF901E00822EFE707B0F0BD140D0020FFFF0000C8
:406F8000BD5300005D06000070B522250400FF35FFF7A6F9625D002A07D0012220001100FFF736FE0023635503E001212000FFF72FFE70BDF7B504000091FFF753FC9A2354
:406FC000260001255B00E75C01004636AF4224D13E23FF33E35C6A4601939C23002512785B00E2543000009B05220EF016F8019BAB4212D12368FF221B6931002000984765
:40700000A84204D03023FF33E7543D0005E02B000E4A072138000DF097F93023FF33E25C3423FF33E15C30000EF0B7FB2368FF221B69310020009847031E04D1044A07210B
:4070400001200DF081F92800FEBDC0465308000059080000902310B55B00C15C0400FFF7A9FF22230122FF33E25410BDC12310B55B00C35C642B03D8024AD15CFFF79AFF0F
:4070800010BDC046AE550200C32310B55B00C35C642B03D8024AD15CFFF78CFF10BDC046AE550200AE2310B5FF33C25C642A01D96422C254C35C024AD15CFFF77BFF10BDD8
:4070C000AE5502004623482270B53C25FF33C35CFF320400FF35865C002B64D0012E3AD0002E0AD0022E41D19D2101234900435483549E224355520036E03023FF33C15CB9
:4071000000290AD19D202F3BFF3B40002354A3549E225200A15463552FE0A3235B00C35CFF2B13D09D2060494000CB5C142B02D92654022101E001212154A15401219E224E
:4071400061555200002B0FD0A15416E0FFF7C8F83300564A0DE09D2300215B00C154393BFF3B8354465508E0A35406E00023504A4355072101200DF0E7F8635D002B70D0C1
:407180002368C8221E6B062101232000B047031E04D1484A072101200DF0D6F89C23FF225B00E2545DE0012E40D0002E0BD0022E43D19D20012140002154A1549E225200FE
:4071C0006155A3543FE03023FF33C15C002909D19D202F3BFF3B40002354A3549E225200A1541CE03A23FF33C15CFF2919D02E4B585C9D235B00142802D9E654022001E0B3
:407200000120E054A054E35C002B04D0002902D19E235B00E1542000FFF7CCFE0123635511E0FFF75DF83300234A08E09D214900435402238354465505E0204A43550721B6
:4072400001200DF081F8635D002B0AD02368C8221E6B062101232000B047031E9ED1184A98E7B023FF33E35C002B1BD1635D002B18D09D235B00E15C25004B4259410223EA
:407280004635591A28000EF091FA2368FF221B69290020009847031E04D10A4A072101200DF052F870BDC046135602008E080000A1080000A9080000DE080000F108000090
:4072C000F90800000209000010B50400FFF708F84623FF33E35CFE21002B02D0A3235B00E15C2000FFF766FE10BD00007FB504000D003A2900D949E208001CF0E1F8FB0094
:407300003B00FF003F00F6010301DA0061009E003B01430147015C0017014F0113016300FA018C00F7000D01BF014B012F0153013301C3019A00430261017001720174014F
:40734000CB017601CF010701A101F2018400880080008B01230127012B01780157011B011F01D7015D0137013F01D301C701D901050231022000FFF7A3FD13E22300FF3362
:407380001B7D0321002B17D03223FF33E35C002B16D14023FF33E35C002B11D17A23FF33E35C002B00D0FDE13623FF33E15C002900D0F7E100E001212000FEF74DFBF1E195
:4073C0000221F9E72300FF331B7D002B00D1E9E1362322002100FF33E65C5E320194558813882D041D436231042268461CF05DFC2B0032000121C94811F0DBFAD2E1200094
:40740000FEF7D8FACEE12000FEF700FBCAE12000FEF73EFBC6E12000FFF7B6FD2000FEF799FF002800D1BDE14C230122FF33E254B8E12000FFF748FFF0E72000FFF7C2FC7E
:4074400023000022FE33DA842000FEF783FF002814D023681D6BA5235B00E35C002B01D0AF4A00E0AF4A002307212000A847031E04D1AD4A072101200CF066FFA4235B003F
:40748000E35C002B00D111E125004635002128000EF0B6F82368FF221B69290020009847031E00D002E1A14A072101200CF04CFFFCE02000FFF7C4FC23000021FE33D984DF
:4074C000A4235B00E35C8B4200D1EFE02500463528000EF095F82368FF221B69290020009847031E00D0E1E0914ADDE72000FFF741FC57E12000FEF74BFA53E12000FEF794
:40750000EFF94FE18B4BFC34E3614BE132230122FF33E254412036E032230022FF33E254412034E02000FEF7EBF93BE12000FFF7CBF837E12000FFF7E1F833E12000FEF7F4
:40754000B7F92FE12000FEF7BFFA2BE12000FEF7D5FA27E12000FFF7ADFC23E12000FFF779FD1FE12000FEF7E5F91BE12000FEF7FBF917E12000FEF7D7FA13E12000FEF757
:40758000E5FA0FE140200DF0E1F80BE140200DF08DF807E12000FEF7B9FD03E12000FEF7A7FBFFE02000FEF721FBFBE0012220001100FFF72DFBF5E02000FFF785FEF1E00E
:4075C0002300FF331B7C002B00D1EBE02722BE2301215B00E2522000FFF752F8E2E00222F5E70422F3E70522F1E72622EFE7BF225200A35C002B00D0D4E00125A554226834
:407600000F21166B20004C4AB047031E00D0C9E04A4A12E0BF235B00E55C012D00D0C1E00222E25423682A001E6B0F2100232000B047031E00D0B5E0414A07212800AFE0BD
:40764000BE235B00E15A3F4A914201D10B22E252E25A0F236B44009321003B4BA06E0DF0EBF9031E04D1394A072101200CF06CFE0122BE2352425B00E25293E02000FFF7E6
:40768000F5FC8FE02000FEF7CDFC8BE02000FEF7E3FC87E02000FFF7F7FC83E02000FEF7EBFC7FE02000FEF701FD7BE0002192E73023FF33E35C2822002B06D02300FF3393
:4076C0001A7C531E9A412A239A1A0F236B44009321001D4BA06E0DF0AFF9031E62D11C4A5CE02000FFF7DEFC5CE02000FFF760FA58E02368174A1D6B0C2100232000A8475A
:40770000031E4FD1144A49E023680C215B6B20009847031E46D1114A40E0C0460403002060EA0000204E0000E7030000EE030000FD030000B80B0000C0D4010093040000A2
:407740009C040000FFFF0000BD530000AE040000E9040000983A0000F7040000FC040000250034234635FF33E15C28000EF07DF82368FF221B69290020009847031E11D193
:407780000A4A0BE02000FFF79DFC0BE00023084A072101200CF0D8FD0023AAB2072101200CF0D2FD012004B070BDC046010500000D05000070B5D723050004005B004635B0
:4077C000C15428000DF069FF2368FF221B69290020009847031E04D1024A072101200CF0B3FD70BD510B000070B50400481E122800D907E11BF064FE15002E00A900F600F6
:40780000C500EE00060106014B0069006B007000910095009900F2001300AF00B1002025F1E04C23FF33E35C002B00D0EAE0D6780225012E00D0E6E0C4225200A654226823
:407840001021156B2000C822A847031E00D080E06E4A17E04C23FF33E35C002B00D0D1E0D6780325012E00D0CDE0C42202215200A15422680E31156B2000C822A847031EFD
:4078800067D1634A072130000CF05EFD61E025004635042B01D0012B01D1D17802E0002B03D1117928000DF0EFFC236829001B69FF22200098472425031E00D0A3E0554ADD
:4078C000072101200CF040FD9DE0012100E000212000FFF76FFF95E0042B01D0012B01D1517803E000218B4200D19178230022000B394F334D32C9B2FF33FF3246480FF006
:4079000025FB00287ED0A9235B00E35C0525002B79D02000FEF76AF975E02000FEF700FE70E02000FEF738FE6CE09F256D00635D2000002B02D0FEF7F3FD01E0FEF72CFEF3
:407940000122635D534063555CE0BD2300225B00E254072557E0212555E0042B01D0012B02D1D378002103E000218B4204D11379642B01D8294AD15C2000FFF71BFB242512
:4079800041E02300FF335A7C002A02D19B7C002B38D04C23FF33E35C002B33D13C22FF32A354236806215B6B20009847031E04D11B4A072101200CF0C7FCD7235B00E35C31
:4079C000002B1FD13B33FF33E55C6B1E9D4111235D1B18E02000FEF71BFE13E02000FEF7A5FC0FE04C23FF33E35C002B0AD13533FF33E35C012B05D14023FF33E35C0425FC
:407A0000002B00D0074D280070BDC0468809000098090000AA090000140D0020AE550200050A0000FFFF00007FB503930A236B4401911900040001AD0292FEF795FC00281F
:407A40001DD026008D36FF3630000CF0E7FA21003023FF31FF33E35C8A7C3000497C0CF0E2FA01996A68AB6830000CF074FB0A2201006B796A442000FFF7B6FE00E001483A
:407A800004B070BDFFFF0000F0B58A78437985B004000D009A4200D1F8E14B780A781B0213432D2B25D007D8292B77D02A2B65D0262B00D0CEE0C3E03D2B00D1B0E003D899
:407AC000332B00D1B2E0C5E0822B6FD0D32B00D0C0E06133C15C3E232A79FF33012905D1002A03D1C15C1626002900D1CA4EE254B1E03C23FF33C35C002B0DD00368062165
:407B00005B6B9847031E04D1E022072101200CF01BFC2000FEF7E4FB2000FEF71BFC002814D0236807215B6B20009847031E04D1E622072101200CF007FC4A220023FF32A2
:407B4000A3540132A3544C22FF32A354236800215B6B20009847031E04D1EB22072101200CF0F2FB2000FEF7D5F8982200235200A3544022FF32A35409266CE00B79002BEC
:407B800005D0012B07D1A54A1526137063E0A34A142613705FE00023822232E00B79012B58D10200FF3213751B2654E04B790A791B021343092B02D0A72B28D04AE04A7BB8
:407BC000002A0CD0012A1AD17A23FF33C25436230192FF33C35C0093130000220AE07A23FF33C254793BFF3B01933623FF33C35C0093130021008A4810F0EEFC2AE00023D4
:407C000092225200072101200CF09EFB22E03423FF330A7AC35C2B269A421CD002361AE036230122FF33C254122614E036220B79FF328354002B0DD00121FDF70DFF09E000
:407C40000B79023B012B05D936230022FF33C254132600E0704E9A235B00E15C002900D1FBE06B782A781B021343AB2B00D1D9E01CD8272B46D014D8002B39D00A2B00D09C
:407C8000EBE06A792879AB79120202431B0413431A00EB7901261B0613432200FC32D362DEE05A2B71D05C2B41D0D6E00622FF32934200D1C7E006D8AE2B00D1E2E0D22B23
:407CC00000D18AE0C9E085225200934200D1B3E00E32934200D1BCE0103A934200D0BCE02B79013B5A425341BD225200A354B4E0EB79002B00D1B0E02000FEF74FFD08221A
:407D000006000EE0EB79002B00D1A6E02000FEF745FD0022012306002A71AA716B71EB710832200029005E301BF0BFFF95E06F1D39002000FEF718FB002800D18DE0012015
:407D40006B7903401BD026008D36FF3630000CF065F921003023FF31FF33E35C8A7C3000497C0CF060F92A79390030000CF070FA2B7901003A002000FFF736FD67E096224B
:407D80000721FF320CF0E0FA67E0B0230022FF33E2546B782878A9781B02034309041A000B00E9781343090619436B792E79AA791B023343120418001300EA790343120652
:407DC0001A436B7A2E7A1B0233431800AB7A1B0403432000FFF728FE39E03423FF33E35C3A20EB181A793823FF33E2542D7AFF302554012931D13C21FF31615C00292CD1A9
:407E00004621FF31615C002927D11626002A27D10132E25424E0C046FFFF00008F0F0020040300206B792A791B021343832B14D1AB79002B28D010E02E79013E7342734106
:407E40001F26F61A0CE029002000FEF7B1FC060003E088232A79FF33E2540D4B9E4215D00F236B44009332000A4B2100A06E0CF0E3FD031E0AD1F9220721520001200CF066
:407E800063FA03E01D26EBE71C26E9E705B0F0BDFFFF0000BD5300000B4B10B5083304000360806E002802D003685B689847200000238D30A366FF300CF09EF8200016F049
:407EC000D3FC200010BDC046AC45020010B50400FFF7E2FF20001BF0C2FA200010BD000070B517F006FD1AF019F81BF015FA19F03BFC19F02BFE002018F014FF1AF00AFD37
:407F000001201AF015FD1BF095F91BF091FA19F0FBFE19F0C3FE19F081FF00201BF036FA18F016FE1AF04EF800201BF025F900201BF036F900201BF01DFA00201AF094F81E
:407F400000201AF09DF8002019F088FF00201BF007F9002019F012FC002019F0D7FB002019F018FC00201BF0E1F900201AF07EFD00201BF0E7F900201BF0F0F9002019F006
:407F800061FF002019F01EFF002018F0CFFD00201AF068FC002019F009FC00201BF0F6F800201AF0EBFC00201AF0D0FC1F4C2378002B01D11E4A13602378002B02D11BF0C9
:407FC000F9F901E01BF0E8F91A4D2B78002B04D02D78EDB2002DEFD103E02378002B04D0F6E72678012EE7D109E0134819F04AFB0AF060FD0028EBD019F014FB70BD19F08F
:408000008FFD022019F0E2FD19F0A8FD022019F0B9FD300019F0CCFD060019F097FD0748074B70439842C7D92570E5E7580C002010E000E03C0C002088130000F60E0000EC
:4080400087DAC400704710B504001BF008FA200010BD0023642201210374C17102814374428183748281C374C28101754375704710B50400044B08330360044B1860FFF724
:40808000E8FF200010BDC0461457020044030020074B10B51B68002B03D01800FFF7D9FF04E03122292101200CF04EF910BDC046440300201FB50F2400236C4423700133D4
:4080C000019312220094054B054816F0EDFF23785A4253415B42184004B010BD91800000DDF60300012307B501930023122200930248034B16F0B6FE0EBDC046DDF6030016
:408100009180000070470000064B70B51C00203B1D006034236820001B68203C9847AC42F8D170BD48030020F7B5070008A80078BC688446FE68002C02D12000F50709D5F9
:4081400075107868F60701D546593459401965460095A047FEBD70B5036905004469002B02D11800E20707D562106868E40701D58458E3588018984770BD10B504001BF0B0
:408180006EF9200010BD000010B50400034B0833036016F069FB200010BDC0463C57020010B50400FFF7F0FF20001BF058F9200010BD70B5040001F031F823680021DB687B
:4081C00020009847031E04D14B220E2101200CF0BBF823680A21DB6820009847031E04D14C220E2101200CF0AFF82368DC21DB6820009847031E04D14D220E2101200CF054
:40820000A3F82368DF21DB6820009847031E04D14E220E2101200CF097F823682D21DB6820009847031E04D14F220E2101200CF08BF823688221DB6820009847031E04D1DE
:4082400050220E2101200CF07FF82368DD21DB6820009847031E04D151220E2101200CF073F82368E021DB6820009847031E04D152220E2101200CF067F82368E221DB682A
:4082800020009847031E04D153220E2101200CF05BF804212368FF31DB6820009847031E04D154220E2101200CF04EF808212368FF31DB6820009847031E04D155220E21D3
:4082C00001200CF041F82368AE21DB6820009847031E04D156220E2101200CF035F82368D521DB6820009847031E04D157220E2101200CF029F8236832221D6B002101235A
:408300002000A847031E04D15B220E2101200CF01BF870BDF0B5040085B002930AAB1B7825001F480F000192039301F088FB1D4E46352066F35D2800052200210CF06DFEA9
:40834000236829001B69FF2220009847019B2800F35C052201210CF060FE236829001B69FF2220009847029B2800F35C052202210CF053FE236829001B69FF222000984794
:40838000039B2800F35C052203210CF046FE2368FF221B69290020009847012005B0F0BDC80300208057020070B505000400463528000CF0E7FF236820001B69FF22290052
:4083C0009847041E06D1C422030092000E2101200BF0BAFF200070BDF0B50400072689B00EA820C8271D0088029601900095200016F00EFA264B0025083323602300254A8E
:408400000833E2670693DD6780331D605D609D600793FD671C3B9A621D635D639D63DD63DD621D4825661D705D709D70DD701D7100F0C6FF2300260072336436059317487B
:408440006B01E9B2C01801F0B5FC0023059A3370337101351380023201360592042DEED10F4A0699FC67CA67079A200013600A4A7C301100F431086021000A4D94314C6070
:408480008562C3622000F832116009B0F0BDC0463C5702002C570200C80300204803002015830000A9830000F0B585B003930AAB1E78002304000D001800190002921A0087
:4084C0006432A75C5A1C012F21D1DFB2002B07D11300002DF3D04019013180B2C9B2EEE7012F01D1029B02E0022F07D1039B002B0DD0C018013180B2C9B208E0032B06D1D3
:40850000002E07D08019013180B2C9B202E01300042AD4D1002902D01BF066F880B22700C0B246370190039B029A2900380000960CF016FF2368FF221B693900200098470F
:40854000031E04D1034A0E2101200BF0FDFE05B0F0BDC0468702000010B50024044800210019203401F031FC802CF7D110BDC0464803002070B5002425000648001901F028
:4085800026FC20342843C5B2802CF6D10120284070BDC0464803002070B504006F342378002B0FD1036832221D6B01231900A847031E02D00123237004E0034A0E210120B9
:4085C0000BF0C2FE70BDC046B2020000036810B55B6B012104009847031E04D1044A0E2101200BF0B1FE00236F34237010BDC046BD02000010B50400FFF7BCFF002803D040
:408600002000FFF7C9FF02E02000FFF7DFFF10BD0023032906D8411864310B78013B58424341DBB218007047F0B50400B1B007AD29002D480DF07CFE2000FFF78DFF0122CD
:4086400021002B7A6C319B0813400B70EB7927009B0813404B70230000257233029364370EAE05921B226A4307AB9A1810002830017AC3790902194303912032137BD17AE7
:408680001B020B4304938279417912020A43717B01394B424B410020029900930880134968018C46049B6044039901F042FB737B059A3B703378013513403B71029B0137FC
:4086C000023302931B36042DCCD1094D280001F093F9002803D00C21280001F0A7F92000FFF788FF31B0F0BD140D002048030020C8030020F8B54B780A781B0204000D00D3
:408700001343DC2B47D022D82D2B00D128E114D8002B34D00A2B00D06FE10B794979BB4C09021943200000F04FFE69792B7909021943200000F04DFE98E1AE2B00D1ACE021
:40874000D52B00D147E1822B00D056E137E0E02B00D1BFE005D8DD2B00D1A7E0DF2B24D04BE10422FF32934200D1FDE00822FF32934200D119E1E22B00D03EE1BEE0CB79A0
:40878000002B00D172E1A14D280001F031F9061E00D06BE13EE10B799C48002B02D001F033F963E101F034F960E10B799748002B02D001F036FA59E101F02EF956E14B79E7
:4087C0000A791B0213438B2B00D04FE1097A0B00083B012B00D849E1687A012606282AD81AF064FE17232323230423000026032921D8AA7A854801F0EFF8297A0600200082
:40880000FFF706FF002816D0230000226E331A7011E02000FFF7FCFE0026B0420BD0230001226E331A70002605E02000FFF7F0FE0028F4D106002B7A0A2B28D1687A062875
:4088400028D8270064371AF031FE1E1E1E1E1E041E006E4EAA7A0021300001F0BDF8AA7A0121300001F0B8F8AA7A0221300001F0B3F83000AA7A032101F0AEF83B7806007C
:40888000012B04D1ECE03B78012B00D1ECE0002E00D1EBE000233C229BE0CB7D032B02D00A2B00D0E2E000F0E7FCDFE05748250001F0A2F84635010028000CF06CFD236825
:4088C000FF221B692900200098475622031E00D0CCE07EE04D48250001F0A2F84635010028000CF061FD2368FF221B692900200098476022031E00D0B8E06AE005000A79C0
:408900006E350368002A1ED00126414A2E7004211D6B0023A847031E05D1B5220E21520030000BF011FD2500463528000CF07EFE2368FF221B692900200098476E22031E31
:4089400000D093E045E05B6B04219847031E05D1B9220E21520001200BF0F6FC00232B702000FFF761FE81E04B7A002B00D17DE04A79FF2A03D00021244801F02DF8AA792D
:40898000FF2A03D00121214801F026F8EA79FF2A03D002211D4801F01FF82A7AFF2A65D003211A4801F018F860E00B79032B5DD8AA794979383312025B000A43C3185A80C1
:4089C0000368C8221D6B05210023A847031E4DD19C22FF3214E003000125962270331D70036852001E6B06210023B047031E3DD1D3220E215200280004E0D622002352008A
:408A00000E2101200BF0A0FC30E0C046C8030020102700000121280000F0E7FF2368144A1F6B022133002000B847031E04D171220E2101200BF088FC280000F0FCFF0400A0
:408A4000280000F0D9FF002810D0002C0ED00C3CE4B2012C0AD90B21280000F0E7FF05E000236E34237012E76E34FBE7F8BDC04610270000F0B50600B1B007A925480DF00A
:408A800057FC3000FFF768FD3300370000247233039364370EAD039B1988002908D11B23634307AAD3182833197ADA79090211431B23634307AAD21813002033D87A1B7B8B
:408AC0001B0203430493130028339A7958791202024311486301C0186B7B0592013B5A425A41049B0092059A01F023F901226B7BA4183B702B781B3513403B71039BBF1898
:408B000002330393042CC6D13000FFF773FD31B0F0BDC046140D00204803002070B5104C200001F08DF82000203001F089F82000403001F085F82000603001F081F8094D66
:408B400009492A0000201AF083FC084C200000F01DFC2A00064920001AF07AFC70BDC046480300207401002009810000C803002025930000F0B5674C87B006000021200004
:408B800000F0E6FB200000F037FF002801D000F051F9637A002B00D0BAE033006C331B78002B00D0B4E033006D331B78002B00D0AEE033006E331D78002D00D0A8E0200008
:408BC00000F00AFC200000F02BFF0390200000F02BFF0490200000F0B9FC0700200000F041FC039B002B61D0002F0BD1049B002B07D15BE0039B002B00D189E0002F00D1E6
:408C000082E00025EBB2316E2000039300F050FF00287DD0042D7BD00399200000F006FC002841D03C4B6F01DF19380001F06BF80490380001F06BF8039B0100049A2000AC
:408C400000F018FF0399200000F048FC330070331B78314F002B27D1237F002B01D1032D22D1380001F053F803903800203001F04EF804903800403001F049F8059038002E
